{"abi":[{"type":"constructor","inputs":[{"name":"_checkpointStore","type":"address","internalType":"contract ICheckpointStore"},{"name":"_bondManager","type":"address","internalType":"contract IBondManager"},{"name":"_livenessBond","type":"uint256","internalType":"uint256"},{"name":"_provabilityBond","type":"uint256","internalType":"uint256"},{"name":"_l1ChainId","type":"uint64","internalType":"uint64"},{"name":"_owner","type":"address","internalType":"address"}],"stateMutability":"nonpayable"},{"type":"function","name":"ANCHOR_GAS_LIMIT","inputs":[],"outputs":[{"name":"","type":"uint64","internalType":"uint64"}],"stateMutability":"view"},{"type":"function","name":"GOLDEN_TOUCH_ADDRESS","inputs":[],"outputs":[{"name":"","type":"address","internalType":"address"}],"stateMutability":"view"},{"type":"function","name":"acceptOwnership","inputs":[],"outputs":[],"stateMutability":"nonpayable"},{"type":"function","name":"anchorV4","inputs":[{"name":"_proposalParams","type":"tuple","internalType":"struct Anchor.ProposalParams","components":[{"name":"proposalId","type":"uint48","internalType":"uint48"},{"name":"proposer","type":"address","internalType":"address"},{"name":"proverAuth","type":"bytes","internalType":"bytes"},{"name":"bondInstructionsHash","type":"bytes32","internalType":"bytes32"},{"name":"bondInstructions","type":"tuple[]","internalType":"struct LibBonds.BondInstruction[]","components":[{"name":"proposalId","type":"uint48","internalType":"uint48"},{"name":"bondType","type":"uint8","internalType":"enum LibBonds.BondType"},{"name":"payer","type":"address","internalType":"address"},{"name":"payee","type":"address","internalType":"address"}]}]},{"name":"_blockParams","type":"tuple","internalType":"struct Anchor.BlockParams","components":[{"name":"anchorBlockNumber","type":"uint48","internalType":"uint48"},{"name":"anchorBlockHash","type":"bytes32","internalType":"bytes32"},{"name":"anchorStateRoot","type":"bytes32","internalType":"bytes32"}]}],"outputs":[],"stateMutability":"nonpayable"},{"type":"function","name":"blockHashes","inputs":[{"name":"blockNumber","type":"uint256","internalType":"uint256"}],"outputs":[{"name":"blockHash","type":"bytes32","internalType":"bytes32"}],"stateMutability":"view"},{"type":"function","name":"bondManager","inputs":[],"outputs":[{"name":"","type":"address","internalType":"contract IBondManager"}],"stateMutability":"view"},{"type":"function","name":"checkpointStore","inputs":[],"outputs":[{"name":"","type":"address","internalType":"contract ICheckpointStore"}],"stateMutability":"view"},{"type":"function","name":"getBlockState","inputs":[],"outputs":[{"name":"","type":"tuple","internalType":"struct Anchor.BlockState","components":[{"name":"anchorBlockNumber","type":"uint48","internalType":"uint48"},{"name":"ancestorsHash","type":"bytes32","internalType":"bytes32"}]}],"stateMutability":"view"},{"type":"function","name":"getDesignatedProver","inputs":[{"name":"_proposalId","type":"uint48","internalType":"uint48"},{"name":"_proposer","type":"address","internalType":"address"},{"name":"_proverAuth","type":"bytes","internalType":"bytes"},{"name":"_currentDesignatedProver","type":"address","internalType":"address"}],"outputs":[{"name":"isLowBondProposal_","type":"bool","internalType":"bool"},{"name":"designatedProver_","type":"address","internalType":"address"},{"name":"provingFeeToTransfer_","type":"uint256","internalType":"uint256"}],"stateMutability":"view"},{"type":"function","name":"getProposalState","inputs":[],"outputs":[{"name":"","type":"tuple","internalType":"struct Anchor.ProposalState","components":[{"name":"bondInstructionsHash","type":"bytes32","internalType":"bytes32"},{"name":"designatedProver","type":"address","internalType":"address"},{"name":"isLowBondProposal","type":"bool","internalType":"bool"},{"name":"proposalId","type":"uint48","internalType":"uint48"}]}],"stateMutability":"view"},{"type":"function","name":"impl","inputs":[],"outputs":[{"name":"","type":"address","internalType":"address"}],"stateMutability":"view"},{"type":"function","name":"inNonReentrant","inputs":[],"outputs":[{"name":"","type":"bool","internalType":"bool"}],"stateMutability":"view"},{"type":"function","name":"l1ChainId","inputs":[],"outputs":[{"name":"","type":"uint64","internalType":"uint64"}],"stateMutability":"view"},{"type":"function","name":"livenessBond","inputs":[],"outputs":[{"name":"","type":"uint256","internalType":"uint256"}],"stateMutability":"view"},{"type":"function","name":"owner","inputs":[],"outputs":[{"name":"","type":"address","internalType":"address"}],"stateMutability":"view"},{"type":"function","name":"pause","inputs":[],"outputs":[],"stateMutability":"nonpayable"},{"type":"function","name":"paused","inputs":[],"outputs":[{"name":"","type":"bool","internalType":"bool"}],"stateMutability":"view"},{"type":"function","name":"pendingOwner","inputs":[],"outputs":[{"name":"","type":"address","internalType":"address"}],"stateMutability":"view"},{"type":"function","name":"provabilityBond","inputs":[],"outputs":[{"name":"","type":"uint256","internalType":"uint256"}],"stateMutability":"view"},{"type":"function","name":"proxiableUUID","inputs":[],"outputs":[{"name":"","type":"bytes32","internalType":"bytes32"}],"stateMutability":"view"},{"type":"function","name":"renounceOwnership","inputs":[],"outputs":[],"stateMutability":"nonpayable"},{"type":"function","name":"resolver","inputs":[],"outputs":[{"name":"","type":"address","internalType":"address"}],"stateMutability":"view"},{"type":"function","name":"transferOwnership","inputs":[{"name":"newOwner","type":"address","internalType":"address"}],"outputs":[],"stateMutability":"nonpayable"},{"type":"function","name":"unpause","inputs":[],"outputs":[],"stateMutability":"nonpayable"},{"type":"function","name":"upgradeTo","inputs":[{"name":"newImplementation","type":"address","internalType":"address"}],"outputs":[],"stateMutability":"nonpayable"},{"type":"function","name":"upgradeToAndCall","inputs":[{"name":"newImplementation","type":"address","internalType":"address"},{"name":"data","type":"bytes","internalType":"bytes"}],"outputs":[],"stateMutability":"payable"},{"type":"function","name":"validateProverAuth","inputs":[{"name":"_proposalId","type":"uint48","internalType":"uint48"},{"name":"_proposer","type":"address","internalType":"address"},{"name":"_proverAuth","type":"bytes","internalType":"bytes"}],"outputs":[{"name":"signer_","type":"address","internalType":"address"},{"name":"provingFee_","type":"uint256","internalType":"uint256"}],"stateMutability":"pure"},{"type":"function","name":"withdraw","inputs":[{"name":"_token","type":"address","internalType":"address"},{"name":"_to","type":"address","internalType":"address"}],"outputs":[],"stateMutability":"nonpayable"},{"type":"event","name":"AdminChanged","inputs":[{"name":"previousAdmin","type":"address","indexed":false,"internalType":"address"},{"name":"newAdmin","type":"address","indexed":false,"internalType":"address"}],"anonymous":false},{"type":"event","name":"Anchored","inputs":[{"name":"bondInstructionsHash","type":"bytes32","indexed":false,"internalType":"bytes32"},{"name":"designatedProver","type":"address","indexed":false,"internalType":"address"},{"name":"isLowBondProposal","type":"bool","indexed":false,"internalType":"bool"},{"name":"prevAnchorBlockNumber","type":"uint48","indexed":false,"internalType":"uint48"},{"name":"anchorBlockNumber","type":"uint48","indexed":false,"internalType":"uint48"},{"name":"ancestorsHash","type":"bytes32","indexed":false,"internalType":"bytes32"}],"anonymous":false},{"type":"event","name":"BeaconUpgraded","inputs":[{"name":"beacon","type":"address","indexed":true,"internalType":"address"}],"anonymous":false},{"type":"event","name":"Initialized","inputs":[{"name":"version","type":"uint8","indexed":false,"internalType":"uint8"}],"anonymous":false},{"type":"event","name":"OwnershipTransferStarted","inputs":[{"name":"previousOwner","type":"address","indexed":true,"internalType":"address"},{"name":"newOwner","type":"address","indexed":true,"internalType":"address"}],"anonymous":false},{"type":"event","name":"OwnershipTransferred","inputs":[{"name":"previousOwner","type":"address","indexed":true,"internalType":"address"},{"name":"newOwner","type":"address","indexed":true,"internalType":"address"}],"anonymous":false},{"type":"event","name":"Paused","inputs":[{"name":"account","type":"address","indexed":false,"internalType":"address"}],"anonymous":false},{"type":"event","name":"Unpaused","inputs":[{"name":"account","type":"address","indexed":false,"internalType":"address"}],"anonymous":false},{"type":"event","name":"Upgraded","inputs":[{"name":"implementation","type":"address","indexed":true,"internalType":"address"}],"anonymous":false},{"type":"event","name":"Withdrawn","inputs":[{"name":"token","type":"address","indexed":false,"internalType":"address"},{"name":"to","type":"address","indexed":false,"internalType":"address"},{"name":"amount","type":"uint256","indexed":false,"internalType":"uint256"}],"anonymous":false},{"type":"error","name":"ACCESS_DENIED","inputs":[]},{"type":"error","name":"AncestorsHashMismatch","inputs":[]},{"type":"error","name":"BondInstructionsHashMismatch","inputs":[]},{"type":"error","name":"ETH_TRANSFER_FAILED","inputs":[]},{"type":"error","name":"FUNC_NOT_IMPLEMENTED","inputs":[]},{"type":"error","name":"INVALID_PAUSE_STATUS","inputs":[]},{"type":"error","name":"InvalidAddress","inputs":[]},{"type":"error","name":"InvalidAnchorBlockNumber","inputs":[]},{"type":"error","name":"InvalidBlockIndex","inputs":[]},{"type":"error","name":"InvalidL1ChainId","inputs":[]},{"type":"error","name":"InvalidL2ChainId","inputs":[]},{"type":"error","name":"InvalidSender","inputs":[]},{"type":"error","name":"NonZeroAnchorBlockHash","inputs":[]},{"type":"error","name":"NonZeroAnchorStateRoot","inputs":[]},{"type":"error","name":"NonZeroBlockIndex","inputs":[]},{"type":"error","name":"ProposalIdMismatch","inputs":[]},{"type":"error","name":"ProposerMismatch","inputs":[]},{"type":"error","name":"REENTRANT_CALL","inputs":[]},{"type":"error","name":"ZERO_ADDRESS","inputs":[]},{"type":"error","name":"ZERO_VALUE","inputs":[]},{"type":"error","name":"ZeroBlockCount","inputs":[]}],"bytecode":{"object":"0x61016060405230608052348015610014575f5ffd5b50604051612b26380380612b26833981016040819052610033916102a0565b61003b610163565b6001600160a01b0386166100625760405163e6c4247b60e01b815260040160405180910390fd5b6001600160a01b0385166100895760405163e6c4247b60e01b815260040160405180910390fd5b6001600160a01b0381166100b05760405163e6c4247b60e01b815260040160405180910390fd5b6001600160401b038216158015906100d1575046826001600160401b031614155b6100ee5760405163ca40667b60e01b815260040160405180910390fd5b60014611801561010557506001600160401b034611155b6101225760405163142d897560e31b815260040160405180910390fd5b6001600160a01b0380871660e052851660c0526101008490526101208390526001600160401b038216610140526101588161021f565b50505050505061031b565b5f54610100900460ff16156101ce5760405162461bcd60e51b815260206004820152602760248201527f496e697469616c697a61626c653a20636f6e747261637420697320696e697469604482015266616c697a696e6760c81b606482015260840160405180910390fd5b5f5460ff9081161461021d575f805460ff191660ff9081179091556040519081527f7f26b83ff96e1f2b6a682f133852f6798a09c465da95921460cefb38474024989060200160405180910390a15b565b606580546001600160a01b03191690556102388161023b565b50565b603380546001600160a01b038381166001600160a01b0319831681179093556040519116919082907f8be0079c531659141344cd1fd0a4f28419497f9722a3daafe3b4186f6b6457e0905f90a35050565b6001600160a01b0381168114610238575f5ffd5b5f5f5f5f5f5f60c087890312156102b5575f5ffd5b86516102c08161028c565b60208801519096506102d18161028c565b6040880151606089015160808a015192975090955093506001600160401b03811681146102fc575f5ffd5b60a088015190925061030d8161028c565b809150509295509295509295565b60805160a05160c05160e05161010051610120516101405161275f6103c75f395f61028301525f81816105fc0152611cf001525f818161062f0152611cb001525f818161044501526112bb01525f818161032b01528181610ce301528181610db4015281816110ba015281816111880152818161177e015261182d01525f6101c101525f81816108520152818161089b0152818161097d015281816109bd0152610a34015261275f5ff3fe6080604052600436106101af575f3560e01c80638456cb59116100e7578063b3d5e45f11610087578063d441422111610062578063d44142211461061e578063e30c397814610651578063f2fde38b1461066e578063f940e3851461068d575f5ffd5b8063b3d5e45f14610591578063c46e3a66146105d5578063cf1a0f22146105eb575f5ffd5b8063955a7244116100c2578063955a7244146104345780639ee512f214610467578063a37ea5151461048c578063aade375b146104ca575f5ffd5b80638456cb59146103ef5780638abf6077146104035780638da5cb5b14610417575f5ffd5b80633659cfe61161015257806352d1902d1161012d57806352d1902d146103935780635c975abb146103a7578063715018a6146103c757806379ba5097146103db575f5ffd5b80633659cfe61461034d5780633f4ba83a1461036c5780634f1ef28614610380575f5ffd5b806312622e5b1161018d57806312622e5b146102725780633075db56146102bd57806334cdf78d146102e1578063363cc4271461031a575f5ffd5b806304f3bcec146101b35780630f439bd9146101fe578063100f758814610251575b5f5ffd5b3480156101be575f5ffd5b507f00000000000000000000000000000000000000000000000000000000000000005b6040516001600160a01b0390911681526020015b60405180910390f35b348015610209575f5ffd5b506040805180820182525f808252602091820152815180830183526101015465ffffffffffff16808252610102549183019182528351908152905191810191909152016101f5565b34801561025c575f5ffd5b5061027061026b366004612039565b6106ac565b005b34801561027d575f5ffd5b506102a57f000000000000000000000000000000000000000000000000000000000000000081565b6040516001600160401b0390911681526020016101f5565b3480156102c8575f5ffd5b506102d1610830565b60405190151581526020016101f5565b3480156102ec575f5ffd5b5061030c6102fb366004612092565b60fb6020525f908152604090205481565b6040519081526020016101f5565b348015610325575f5ffd5b506101e17f000000000000000000000000000000000000000000000000000000000000000081565b348015610358575f5ffd5b506102706103673660046120c4565b610848565b348015610377575f5ffd5b50610270610918565b61027061038e3660046121a2565b610973565b34801561039e575f5ffd5b5061030c610a28565b3480156103b2575f5ffd5b506102d160c954610100900460ff1660021490565b3480156103d2575f5ffd5b50610270610ad9565b3480156103e6575f5ffd5b50610270610aea565b3480156103fa575f5ffd5b50610270610b61565b34801561040e575f5ffd5b506101e1610bb6565b348015610422575f5ffd5b506033546001600160a01b03166101e1565b34801561043f575f5ffd5b506101e17f000000000000000000000000000000000000000000000000000000000000000081565b348015610472575f5ffd5b506101e171777735367b36bc9b61c50022d9d0700db4ec81565b348015610497575f5ffd5b506104ab6104a636600461223e565b610bc4565b604080516001600160a01b0390931683526020830191909152016101f5565b3480156104d5575f5ffd5b5061054b604080516080810182525f808252602082018190529181018290526060810191909152506040805160808101825260ff80548252610100546001600160a01b0381166020840152600160a01b8104909116151592820192909252600160a81b90910465ffffffffffff16606082015290565b6040516101f59190815181526020808301516001600160a01b03169082015260408083015115159082015260609182015165ffffffffffff169181019190915260800190565b34801561059c575f5ffd5b506105b06105ab36600461229a565b610ca4565b6040805193151584526001600160a01b039092166020840152908201526060016101f5565b3480156105e0575f5ffd5b506102a5620f424081565b3480156105f6575f5ffd5b5061030c7f000000000000000000000000000000000000000000000000000000000000000081565b348015610629575f5ffd5b5061030c7f000000000000000000000000000000000000000000000000000000000000000081565b34801561065c575f5ffd5b506065546001600160a01b03166101e1565b348015610679575f5ffd5b506102706106883660046120c4565b610e47565b348015610698575f5ffd5b506102706106a736600461230a565b610eb8565b3371777735367b36bc9b61c50022d9d0700db4ec146106de57604051636edaef2f60e11b815260040160405180910390fd5b6106e6610ff4565b6106f06002611023565b61010054600160a81b900465ffffffffffff1680610711602085018561233b565b65ffffffffffff1610156107385760405163229329c760e01b815260040160405180910390fd5b65ffffffffffff811661074e602085018561233b565b65ffffffffffff1611156107655761076583611039565b6101015465ffffffffffff1661077a8361123e565b5f610786600143612354565b5f81815260fb60209081526040918290208340905560ff805461010054610101546101025486519384526001600160a01b03831695840195909552600160a01b90910490921615159381019390935265ffffffffffff808716606085015216608083015260a08201529091507fe80d555eb6906f6907b68e6ead37d1089d1fbb7e23a68f3335dd04f8aef3e1e79060c00160405180910390a150505061082c6001611023565b5050565b5f600261083f60c95460ff1690565b60ff1614905090565b6001600160a01b037f00000000000000000000000000000000000000000000000000000000000000001630036108995760405162461bcd60e51b815260040161089090612373565b60405180910390fd5b7f00000000000000000000000000000000000000000000000000000000000000006001600160a01b03166108cb6113a3565b6001600160a01b0316146108f15760405162461bcd60e51b8152600401610890906123bf565b6108fa816113be565b604080515f80825260208201909252610915918391906113c6565b50565b610920611530565b61093460c9805461ff001916610100179055565b6040513381527f5db9ee0a495bf2e6ff9c91a7834c1ba4fdd244a5e8aa4e537bd38aeae4b073aa9060200160405180910390a1610971335f611561565b565b6001600160a01b037f00000000000000000000000000000000000000000000000000000000000000001630036109bb5760405162461bcd60e51b815260040161089090612373565b7f00000000000000000000000000000000000000000000000000000000000000006001600160a01b03166109ed6113a3565b6001600160a01b031614610a135760405162461bcd60e51b8152600401610890906123bf565b610a1c826113be565b61082c828260016113c6565b5f306001600160a01b037f00000000000000000000000000000000000000000000000000000000000000001614610ac75760405162461bcd60e51b815260206004820152603860248201527f555550535570677261646561626c653a206d757374206e6f742062652063616c60448201527f6c6564207468726f7567682064656c656761746563616c6c00000000000000006064820152608401610890565b505f5160206126e35f395f51905f5290565b610ae1611565565b6109715f6115bf565b60655433906001600160a01b03168114610b585760405162461bcd60e51b815260206004820152602960248201527f4f776e61626c6532537465703a2063616c6c6572206973206e6f7420746865206044820152683732bb9037bbb732b960b91b6064820152608401610890565b610915816115bf565b610b696115d8565b60c9805461ff0019166102001790556040513381527f62e78cea01bee320cd4e420270b5ea74000d11b0c9f74754ebdbfc544b05a2589060200160405180910390a1610971336001611561565b5f610bbf6113a3565b905090565b5f8060e1831015610bd957508390505f610c9b565b5f610be68486018661240b565b9050610bf381888861160a565b610c0357855f9250925050610c9b565b604181606001515114610c1c57855f9250925050610c9b565b5f5f610c34610c2a8461164a565b8460600151611689565b90925090505f816004811115610c4c57610c4c6124a1565b141580610c6057506001600160a01b038216155b15610c7357875f94509450505050610c9b565b819450876001600160a01b0316856001600160a01b031614610c9757826040015193505b5050505b94509492505050565b5f5f5f5f5f610cb58a8a8a8a610bc4565b60405163508b724360e11b81526001600160a01b038c81166004830152602482018390529294509092505f917f0000000000000000000000000000000000000000000000000000000000000000169063a116e48690604401602060405180830381865afa158015610d28573d5f5f3e3d5ffd5b505050506040513d601f19601f82011682018060405250810190610d4c91906124b5565b905080610d65576001875f955095509550505050610e3c565b896001600160a01b0316836001600160a01b031603610d8f575f8a5f955095509550505050610e3c565b60405163508b724360e11b81526001600160a01b0384811660048301525f60248301527f0000000000000000000000000000000000000000000000000000000000000000169063a116e48690604401602060405180830381865afa158015610df9573d5f5f3e3d5ffd5b505050506040513d601f19601f82011682018060405250810190610e1d91906124b5565b610e32575f8a5f955095509550505050610e3c565b505f945090925090505b955095509592505050565b610e4f611565565b606580546001600160a01b0383166001600160a01b03199091168117909155610e806033546001600160a01b031690565b6001600160a01b03167f38d16b8cac22d99fc7c124b9cd0de2d3fa1faef420bfe791d8c362d765e2270060405160405180910390a350565b610ec0611565565b610ec8610ff4565b610ed26002611023565b6001600160a01b038116610ef95760405163e6c4247b60e01b815260040160405180910390fd5b5f6001600160a01b038316610f22575047610f1d6001600160a01b038316826116cb565b610f9e565b6040516370a0823160e01b81523060048201526001600160a01b038416906370a0823190602401602060405180830381865afa158015610f64573d5f5f3e3d5ffd5b505050506040513d601f19601f82011682018060405250810190610f8891906124d4565b9050610f9e6001600160a01b03841683836116d6565b604080516001600160a01b038086168252841660208201529081018290527fd1c19fbcd4551a5edfb66d43d2e337c04837afda3482b42bdf569a8fccdae5fb9060600160405180910390a15061082c6001611023565b600261100260c95460ff1690565b60ff16036109715760405163dfc60d8560e01b815260040160405180910390fd5b60c9805460ff191660ff92909216919091179055565b5f61107961104a602084018461233b565b61105a60408501602086016120c4565b61106760408601866124eb565b610100546001600160a01b0316610ca4565b6101008054931515600160a01b026001600160a81b03199094166001600160a01b0390931692909217929092179055905080156111e2576001600160a01b037f00000000000000000000000000000000000000000000000000000000000000001663391396de6110ef60408501602086016120c4565b6040516001600160e01b031960e084901b1681526001600160a01b039091166004820152602481018490526044016020604051808303815f875af1158015611139573d5f5f3e3d5ffd5b505050506040513d601f19601f8201168201806040525081019061115d91906124d4565b5061010054604051632f8cb47d60e21b81526001600160a01b039182166004820152602481018390527f00000000000000000000000000000000000000000000000000000000000000009091169063be32d1f4906044015f604051808303815f87803b1580156111cb575f5ffd5b505af11580156111dd573d5f5f3e3d5ffd5b505050505b60ff54611200906111f6608085018561252d565b8560600135611728565b60ff55611210602083018361233b565b610100805465ffffffffffff92909216600160a81b0265ffffffffffff60a81b199092169190911790555050565b5f5f611248611910565b6101025491935091501561127957610102548214611279576040516349645ffd60e01b815260040160405180910390fd5b6101028190556101015465ffffffffffff16611298602085018561233b565b65ffffffffffff16111561139e5760408051606081019091526001600160a01b037f0000000000000000000000000000000000000000000000000000000000000000169063c9a0b8c890806112f0602088018861233b565b65ffffffffffff9081168252602088810135818401526040808a01359381019390935282516001600160e01b031960e087901b16815284519092166004830152830151602482015291015160448201526064015f604051808303815f87803b15801561135a575f5ffd5b505af115801561136c573d5f5f3e3d5ffd5b5061137e92505050602084018461233b565b610101805465ffffffffffff191665ffffffffffff929092169190911790555b505050565b5f5160206126e35f395f51905f52546001600160a01b031690565b610915611565565b7f4910fdfa16fed3260ed0e7147f7cc6da11a60208b5b9406d12a635614ffd91435460ff16156113f95761139e836119ad565b826001600160a01b03166352d1902d6040518163ffffffff1660e01b8152600401602060405180830381865afa925050508015611453575060408051601f3d908101601f19168201909252611450918101906124d4565b60015b6114b65760405162461bcd60e51b815260206004820152602e60248201527f45524331393637557067726164653a206e657720696d706c656d656e7461746960448201526d6f6e206973206e6f74205555505360901b6064820152608401610890565b5f5160206126e35f395f51905f5281146115245760405162461bcd60e51b815260206004820152602960248201527f45524331393637557067726164653a20756e737570706f727465642070726f786044820152681a58589b195555525160ba1b6064820152608401610890565b5061139e838383611a48565b61154460c954610100900460ff1660021490565b6109715760405163bae6e2a960e01b815260040160405180910390fd5b61082c5b6033546001600160a01b031633146109715760405162461bcd60e51b815260206004820181905260248201527f4f776e61626c653a2063616c6c6572206973206e6f7420746865206f776e65726044820152606401610890565b606580546001600160a01b031916905561091581611a72565b6115ec60c954610100900460ff1660021490565b156109715760405163bae6e2a960e01b815260040160405180910390fd5b5f8265ffffffffffff16845f015165ffffffffffff161480156116425750816001600160a01b031684602001516001600160a01b0316145b949350505050565b8051602080830151604080850151815165ffffffffffff90951685526001600160a01b039092169284019290925290820152606090205f905b92915050565b5f5f82516041036116bd576020830151604084015160608501515f1a6116b187828585611ac3565b945094505050506116c4565b505f905060025b9250929050565b61082c82825a611b7d565b604080516001600160a01b038416602482015260448082018490528251808303909101815260649091019091526020810180516001600160e01b031663a9059cbb60e01b17905261139e908490611bc0565b83825f5b818110156118e6573686868381811061174757611747612572565b90506080020190505f61176b8260200160208101906117669190612594565b611c93565b905080156118bf575f6001600160a01b037f00000000000000000000000000000000000000000000000000000000000000001663391396de6117b360608601604087016120c4565b6040516001600160e01b031960e084901b1681526001600160a01b039091166004820152602481018590526044016020604051808303815f875af11580156117fd573d5f5f3e3d5ffd5b505050506040513d601f19601f8201168201806040525081019061182191906124d4565b90506001600160a01b037f00000000000000000000000000000000000000000000000000000000000000001663be32d1f461186260808601606087016120c4565b6040516001600160e01b031960e084901b1681526001600160a01b039091166004820152602481018490526044015f604051808303815f87803b1580156118a7575f5ffd5b505af11580156118b9573d5f5f3e3d5ffd5b50505050505b6118d7856118d2368590038501856125ad565b611d1b565b9450505080600101905061172c565b50828214611907576040516388c4700b60e01b815260040160405180910390fd5b50949350505050565b5f808061191e600143612354565b9050611928612019565b46611fe08201525f5b60ff811080156119445750806001018310155b15611975575f198184030180408360ff8306610100811061196757611967612572565b602002015250600101611931565b506120008120935081408161198b60ff8561260c565b610100811061199c5761199c612572565b602002015261200090209293915050565b6001600160a01b0381163b611a1a5760405162461bcd60e51b815260206004820152602d60248201527f455243313936373a206e657720696d706c656d656e746174696f6e206973206e60448201526c1bdd08184818dbdb9d1c9858dd609a1b6064820152608401610890565b5f5160206126e35f395f51905f5280546001600160a01b0319166001600160a01b0392909216919091179055565b611a5183611d82565b5f82511180611a5d5750805b1561139e57611a6c8383611dc1565b50505050565b603380546001600160a01b038381166001600160a01b0319831681179093556040519116919082907f8be0079c531659141344cd1fd0a4f28419497f9722a3daafe3b4186f6b6457e0905f90a35050565b5f807f7fffffffffffffffffffffffffffffff5d576e7357a4501ddfe92f46681b20a0831115611af857505f90506003610c9b565b604080515f8082526020820180845289905260ff881692820192909252606081018690526080810185905260019060a0016020604051602081039080840390855afa158015611b49573d5f5f3e3d5ffd5b5050604051601f1901519150506001600160a01b038116611b71575f60019250925050610c9b565b965f9650945050505050565b815f03611b8957505050565b611ba383838360405180602001604052805f815250611de6565b61139e57604051634c67134d60e11b815260040160405180910390fd5b5f611c14826040518060400160405280602081526020017f5361666545524332303a206c6f772d6c6576656c2063616c6c206661696c6564815250856001600160a01b0316611e239092919063ffffffff16565b905080515f1480611c34575080806020019051810190611c3491906124b5565b61139e5760405162461bcd60e51b815260206004820152602a60248201527f5361666545524332303a204552433230206f7065726174696f6e20646964206e6044820152691bdd081cdd58d8d9595960b21b6064820152608401610890565b5f6002826002811115611ca857611ca86124a1565b03611cd457507f0000000000000000000000000000000000000000000000000000000000000000919050565b6001826002811115611ce857611ce86124a1565b03611d1457507f0000000000000000000000000000000000000000000000000000000000000000919050565b505f919050565b80515f9065ffffffffffff161580611d4757505f82602001516002811115611d4557611d456124a1565b145b611d79578282604051602001611d5e92919061262b565b60405160208183030381529060405280519060200120611d7b565b825b9392505050565b611d8b816119ad565b6040516001600160a01b038216907fbc7cd75a20ee27fd9adebab32041f755214dbc6bffa90cc0225b39da2e5c2d3b905f90a250565b6060611d7b838360405180606001604052806027815260200161270360279139611e31565b5f6001600160a01b038516611e0e57604051634c67134d60e11b815260040160405180910390fd5b5f5f835160208501878988f195945050505050565b606061164284845f85611ea5565b60605f5f856001600160a01b031685604051611e4d9190612697565b5f60405180830381855af49150503d805f8114611e85576040519150601f19603f3d011682016040523d82523d5f602084013e611e8a565b606091505b5091509150611e9b86838387611f7c565b9695505050505050565b606082471015611f065760405162461bcd60e51b815260206004820152602660248201527f416464726573733a20696e73756666696369656e742062616c616e636520666f6044820152651c8818d85b1b60d21b6064820152608401610890565b5f5f866001600160a01b03168587604051611f219190612697565b5f6040518083038185875af1925050503d805f8114611f5b576040519150601f19603f3d011682016040523d82523d5f602084013e611f60565b606091505b5091509150611f7187838387611f7c565b979650505050505050565b60608315611fea5782515f03611fe3576001600160a01b0385163b611fe35760405162461bcd60e51b815260206004820152601d60248201527f416464726573733a2063616c6c20746f206e6f6e2d636f6e74726163740000006044820152606401610890565b5081611642565b6116428383815115611fff5781518083602001fd5b8060405162461bcd60e51b815260040161089091906126ad565b604051806120000160405280610100906020820280368337509192915050565b5f5f828403608081121561204b575f5ffd5b83356001600160401b03811115612060575f5ffd5b840160a08187031215612071575f5ffd5b92506060601f1982011215612084575f5ffd5b506020830190509250929050565b5f602082840312156120a2575f5ffd5b5035919050565b80356001600160a01b03811681146120bf575f5ffd5b919050565b5f602082840312156120d4575f5ffd5b611d7b826120a9565b634e487b7160e01b5f52604160045260245ffd5b604051608081016001600160401b0381118282101715612113576121136120dd565b60405290565b5f82601f830112612128575f5ffd5b81356001600160401b03811115612141576121416120dd565b604051601f8201601f19908116603f011681016001600160401b038111828210171561216f5761216f6120dd565b604052818152838201602001851015612186575f5ffd5b816020850160208301375f918101602001919091529392505050565b5f5f604083850312156121b3575f5ffd5b6121bc836120a9565b915060208301356001600160401b038111156121d6575f5ffd5b6121e285828601612119565b9150509250929050565b803565ffffffffffff811681146120bf575f5ffd5b5f5f83601f840112612211575f5ffd5b5081356001600160401b03811115612227575f5ffd5b6020830191508360208285010111156116c4575f5ffd5b5f5f5f5f60608587031215612251575f5ffd5b61225a856121ec565b9350612268602086016120a9565b925060408501356001600160401b03811115612282575f5ffd5b61228e87828801612201565b95989497509550505050565b5f5f5f5f5f608086880312156122ae575f5ffd5b6122b7866121ec565b94506122c5602087016120a9565b935060408601356001600160401b038111156122df575f5ffd5b6122eb88828901612201565b90945092506122fe9050606087016120a9565b90509295509295909350565b5f5f6040838503121561231b575f5ffd5b612324836120a9565b9150612332602084016120a9565b90509250929050565b5f6020828403121561234b575f5ffd5b611d7b826121ec565b8181038181111561168357634e487b7160e01b5f52601160045260245ffd5b6020808252602c908201527f46756e6374696f6e206d7573742062652063616c6c6564207468726f7567682060408201526b19195b1959d85d1958d85b1b60a21b606082015260800190565b6020808252602c908201527f46756e6374696f6e206d7573742062652063616c6c6564207468726f7567682060408201526b6163746976652070726f787960a01b606082015260800190565b5f6020828403121561241b575f5ffd5b81356001600160401b03811115612430575f5ffd5b820160808185031215612441575f5ffd5b6124496120f1565b612452826121ec565b8152612460602083016120a9565b60208201526040828101359082015260608201356001600160401b03811115612487575f5ffd5b61249386828501612119565b606083015250949350505050565b634e487b7160e01b5f52602160045260245ffd5b5f602082840312156124c5575f5ffd5b81518015158114611d7b575f5ffd5b5f602082840312156124e4575f5ffd5b5051919050565b5f5f8335601e19843603018112612500575f5ffd5b8301803591506001600160401b03821115612519575f5ffd5b6020019150368190038213156116c4575f5ffd5b5f5f8335601e19843603018112612542575f5ffd5b8301803591506001600160401b0382111561255b575f5ffd5b6020019150600781901b36038213156116c4575f5ffd5b634e487b7160e01b5f52603260045260245ffd5b8035600381106120bf575f5ffd5b5f602082840312156125a4575f5ffd5b611d7b82612586565b5f60808284031280156125be575f5ffd5b506125c76120f1565b6125d0836121ec565b81526125de60208401612586565b60208201526125ef604084016120a9565b6040820152612600606084016120a9565b60608201529392505050565b5f8261262657634e487b7160e01b5f52601260045260245ffd5b500690565b5f60a08201905083825265ffffffffffff835116602083015260208301516003811061266557634e487b7160e01b5f52602160045260245ffd5b6040838101919091528301516001600160a01b0390811660608085019190915290930151909216608090910152919050565b5f82518060208501845e5f920191825250919050565b602081525f82518060208401528060208501604085015e5f604082850101526040601f19601f8301168401019150509291505056fe360894a13ba1a3210667c828492db98dca3e2076cc3735a920a3ca505d382bbc416464726573733a206c6f772d6c6576656c2064656c65676174652063616c6c206661696c6564a2646970667358221220bcede5daa17fdbada4da99879e9ac974f7802710440e8143c3d0f278541f637964736f6c634300081e0033","linkReferences":{}},"methodIdentifiers":{"ANCHOR_GAS_LIMIT()":"c46e3a66","GOLDEN_TOUCH_ADDRESS()":"9ee512f2","acceptOwnership()":"79ba5097","anchorV4((uint48,address,bytes,bytes32,(uint48,uint8,address,address)[]),(uint48,bytes32,bytes32))":"100f7588","blockHashes(uint256)":"34cdf78d","bondManager()":"363cc427","checkpointStore()":"955a7244","getBlockState()":"0f439bd9","getDesignatedProver(uint48,address,bytes,address)":"b3d5e45f","getProposalState()":"aade375b","impl()":"8abf6077","inNonReentrant()":"3075db56","l1ChainId()":"12622e5b","livenessBond()":"d4414221","owner()":"8da5cb5b","pause()":"8456cb59","paused()":"5c975abb","pendingOwner()":"e30c3978","provabilityBond()":"cf1a0f22","proxiableUUID()":"52d1902d","renounceOwnership()":"715018a6","resolver()":"04f3bcec","transferOwnership(address)":"f2fde38b","unpause()":"3f4ba83a","upgradeTo(address)":"3659cfe6","upgradeToAndCall(address,bytes)":"4f1ef286","validateProverAuth(uint48,address,bytes)":"a37ea515","withdraw(address,address)":"f940e385"},"id":0}