{
    "abi": [
        {
            "type": "constructor",
            "inputs": [
                {
                    "name": "_checkpointStore",
                    "type": "address",
                    "internalType": "contract ICheckpointStore"
                },
                {
                    "name": "_bondManager",
                    "type": "address",
                    "internalType": "contract IBondManager"
                },
                {
                    "name": "_livenessBond",
                    "type": "uint256",
                    "internalType": "uint256"
                },
                {
                    "name": "_provabilityBond",
                    "type": "uint256",
                    "internalType": "uint256"
                },
                {
                    "name": "_l1ChainId",
                    "type": "uint64",
                    "internalType": "uint64"
                }
            ],
            "stateMutability": "nonpayable"
        },
        {
            "type": "function",
            "name": "ANCHOR_GAS_LIMIT",
            "inputs": [],
            "outputs": [
                {
                    "name": "",
                    "type": "uint64",
                    "internalType": "uint64"
                }
            ],
            "stateMutability": "view"
        },
        {
            "type": "function",
            "name": "DOMAIN_SEPARATOR",
            "inputs": [],
            "outputs": [
                {
                    "name": "",
                    "type": "bytes32",
                    "internalType": "bytes32"
                }
            ],
            "stateMutability": "view"
        },
        {
            "type": "function",
            "name": "GOLDEN_TOUCH_ADDRESS",
            "inputs": [],
            "outputs": [
                {
                    "name": "",
                    "type": "address",
                    "internalType": "address"
                }
            ],
            "stateMutability": "view"
        },
        {
            "type": "function",
            "name": "acceptOwnership",
            "inputs": [],
            "outputs": [],
            "stateMutability": "nonpayable"
        },
        {
            "type": "function",
            "name": "anchorV4",
            "inputs": [
                {
                    "name": "_proposalParams",
                    "type": "tuple",
                    "internalType": "struct Anchor.ProposalParams",
                    "components": [
                        {
                            "name": "proposalId",
                            "type": "uint48",
                            "internalType": "uint48"
                        },
                        {
                            "name": "proposer",
                            "type": "address",
                            "internalType": "address"
                        },
                        {
                            "name": "proverAuth",
                            "type": "bytes",
                            "internalType": "bytes"
                        }
                    ]
                },
                {
                    "name": "_blockParams",
                    "type": "tuple",
                    "internalType": "struct Anchor.BlockParams",
                    "components": [
                        {
                            "name": "anchorBlockNumber",
                            "type": "uint48",
                            "internalType": "uint48"
                        },
                        {
                            "name": "anchorBlockHash",
                            "type": "bytes32",
                            "internalType": "bytes32"
                        },
                        {
                            "name": "anchorStateRoot",
                            "type": "bytes32",
                            "internalType": "bytes32"
                        }
                    ]
                }
            ],
            "outputs": [],
            "stateMutability": "nonpayable"
        },
        {
            "type": "function",
            "name": "blockHashes",
            "inputs": [
                {
                    "name": "blockNumber",
                    "type": "uint256",
                    "internalType": "uint256"
                }
            ],
            "outputs": [
                {
                    "name": "blockHash",
                    "type": "bytes32",
                    "internalType": "bytes32"
                }
            ],
            "stateMutability": "view"
        },
        {
            "type": "function",
            "name": "bondManager",
            "inputs": [],
            "outputs": [
                {
                    "name": "",
                    "type": "address",
                    "internalType": "contract IBondManager"
                }
            ],
            "stateMutability": "view"
        },
        {
            "type": "function",
            "name": "checkpointStore",
            "inputs": [],
            "outputs": [
                {
                    "name": "",
                    "type": "address",
                    "internalType": "contract ICheckpointStore"
                }
            ],
            "stateMutability": "view"
        },
        {
            "type": "function",
            "name": "getBlockState",
            "inputs": [],
            "outputs": [
                {
                    "name": "",
                    "type": "tuple",
                    "internalType": "struct Anchor.BlockState",
                    "components": [
                        {
                            "name": "anchorBlockNumber",
                            "type": "uint48",
                            "internalType": "uint48"
                        },
                        {
                            "name": "ancestorsHash",
                            "type": "bytes32",
                            "internalType": "bytes32"
                        }
                    ]
                }
            ],
            "stateMutability": "view"
        },
        {
            "type": "function",
            "name": "getDesignatedProver",
            "inputs": [
                {
                    "name": "_proposalId",
                    "type": "uint48",
                    "internalType": "uint48"
                },
                {
                    "name": "_proposer",
                    "type": "address",
                    "internalType": "address"
                },
                {
                    "name": "_proverAuth",
                    "type": "bytes",
                    "internalType": "bytes"
                },
                {
                    "name": "_currentDesignatedProver",
                    "type": "address",
                    "internalType": "address"
                }
            ],
            "outputs": [
                {
                    "name": "isLowBondProposal_",
                    "type": "bool",
                    "internalType": "bool"
                },
                {
                    "name": "designatedProver_",
                    "type": "address",
                    "internalType": "address"
                },
                {
                    "name": "provingFeeToTransfer_",
                    "type": "uint256",
                    "internalType": "uint256"
                }
            ],
            "stateMutability": "view"
        },
        {
            "type": "function",
            "name": "getProposalState",
            "inputs": [],
            "outputs": [
                {
                    "name": "",
                    "type": "tuple",
                    "internalType": "struct Anchor.ProposalState",
                    "components": [
                        {
                            "name": "designatedProver",
                            "type": "address",
                            "internalType": "address"
                        },
                        {
                            "name": "isLowBondProposal",
                            "type": "bool",
                            "internalType": "bool"
                        },
                        {
                            "name": "proposalId",
                            "type": "uint48",
                            "internalType": "uint48"
                        }
                    ]
                }
            ],
            "stateMutability": "view"
        },
        {
            "type": "function",
            "name": "impl",
            "inputs": [],
            "outputs": [
                {
                    "name": "",
                    "type": "address",
                    "internalType": "address"
                }
            ],
            "stateMutability": "view"
        },
        {
            "type": "function",
            "name": "inNonReentrant",
            "inputs": [],
            "outputs": [
                {
                    "name": "",
                    "type": "bool",
                    "internalType": "bool"
                }
            ],
            "stateMutability": "view"
        },
        {
            "type": "function",
            "name": "init",
            "inputs": [
                {
                    "name": "_owner",
                    "type": "address",
                    "internalType": "address"
                }
            ],
            "outputs": [],
            "stateMutability": "nonpayable"
        },
        {
            "type": "function",
            "name": "l1ChainId",
            "inputs": [],
            "outputs": [
                {
                    "name": "",
                    "type": "uint64",
                    "internalType": "uint64"
                }
            ],
            "stateMutability": "view"
        },
        {
            "type": "function",
            "name": "livenessBond",
            "inputs": [],
            "outputs": [
                {
                    "name": "",
                    "type": "uint256",
                    "internalType": "uint256"
                }
            ],
            "stateMutability": "view"
        },
        {
            "type": "function",
            "name": "owner",
            "inputs": [],
            "outputs": [
                {
                    "name": "",
                    "type": "address",
                    "internalType": "address"
                }
            ],
            "stateMutability": "view"
        },
        {
            "type": "function",
            "name": "pause",
            "inputs": [],
            "outputs": [],
            "stateMutability": "nonpayable"
        },
        {
            "type": "function",
            "name": "paused",
            "inputs": [],
            "outputs": [
                {
                    "name": "",
                    "type": "bool",
                    "internalType": "bool"
                }
            ],
            "stateMutability": "view"
        },
        {
            "type": "function",
            "name": "pendingOwner",
            "inputs": [],
            "outputs": [
                {
                    "name": "",
                    "type": "address",
                    "internalType": "address"
                }
            ],
            "stateMutability": "view"
        },
        {
            "type": "function",
            "name": "provabilityBond",
            "inputs": [],
            "outputs": [
                {
                    "name": "",
                    "type": "uint256",
                    "internalType": "uint256"
                }
            ],
            "stateMutability": "view"
        },
        {
            "type": "function",
            "name": "proxiableUUID",
            "inputs": [],
            "outputs": [
                {
                    "name": "",
                    "type": "bytes32",
                    "internalType": "bytes32"
                }
            ],
            "stateMutability": "view"
        },
        {
            "type": "function",
            "name": "renounceOwnership",
            "inputs": [],
            "outputs": [],
            "stateMutability": "nonpayable"
        },
        {
            "type": "function",
            "name": "resolver",
            "inputs": [],
            "outputs": [
                {
                    "name": "",
                    "type": "address",
                    "internalType": "address"
                }
            ],
            "stateMutability": "view"
        },
        {
            "type": "function",
            "name": "transferOwnership",
            "inputs": [
                {
                    "name": "newOwner",
                    "type": "address",
                    "internalType": "address"
                }
            ],
            "outputs": [],
            "stateMutability": "nonpayable"
        },
        {
            "type": "function",
            "name": "unpause",
            "inputs": [],
            "outputs": [],
            "stateMutability": "nonpayable"
        },
        {
            "type": "function",
            "name": "upgradeTo",
            "inputs": [
                {
                    "name": "newImplementation",
                    "type": "address",
                    "internalType": "address"
                }
            ],
            "outputs": [],
            "stateMutability": "nonpayable"
        },
        {
            "type": "function",
            "name": "upgradeToAndCall",
            "inputs": [
                {
                    "name": "newImplementation",
                    "type": "address",
                    "internalType": "address"
                },
                {
                    "name": "data",
                    "type": "bytes",
                    "internalType": "bytes"
                }
            ],
            "outputs": [],
            "stateMutability": "payable"
        },
        {
            "type": "function",
            "name": "validateProverAuth",
            "inputs": [
                {
                    "name": "_proposalId",
                    "type": "uint48",
                    "internalType": "uint48"
                },
                {
                    "name": "_proposer",
                    "type": "address",
                    "internalType": "address"
                },
                {
                    "name": "_proverAuth",
                    "type": "bytes",
                    "internalType": "bytes"
                }
            ],
            "outputs": [
                {
                    "name": "signer_",
                    "type": "address",
                    "internalType": "address"
                },
                {
                    "name": "provingFee_",
                    "type": "uint256",
                    "internalType": "uint256"
                }
            ],
            "stateMutability": "view"
        },
        {
            "type": "function",
            "name": "withdraw",
            "inputs": [
                {
                    "name": "_token",
                    "type": "address",
                    "internalType": "address"
                },
                {
                    "name": "_to",
                    "type": "address",
                    "internalType": "address"
                }
            ],
            "outputs": [],
            "stateMutability": "nonpayable"
        },
        {
            "type": "event",
            "name": "AdminChanged",
            "inputs": [
                {
                    "name": "previousAdmin",
                    "type": "address",
                    "indexed": false,
                    "internalType": "address"
                },
                {
                    "name": "newAdmin",
                    "type": "address",
                    "indexed": false,
                    "internalType": "address"
                }
            ],
            "anonymous": false
        },
        {
            "type": "event",
            "name": "Anchored",
            "inputs": [
                {
                    "name": "designatedProver",
                    "type": "address",
                    "indexed": false,
                    "internalType": "address"
                },
                {
                    "name": "isLowBondProposal",
                    "type": "bool",
                    "indexed": false,
                    "internalType": "bool"
                },
                {
                    "name": "isNewProposal",
                    "type": "bool",
                    "indexed": false,
                    "internalType": "bool"
                },
                {
                    "name": "prevAnchorBlockNumber",
                    "type": "uint48",
                    "indexed": false,
                    "internalType": "uint48"
                },
                {
                    "name": "anchorBlockNumber",
                    "type": "uint48",
                    "indexed": false,
                    "internalType": "uint48"
                },
                {
                    "name": "ancestorsHash",
                    "type": "bytes32",
                    "indexed": false,
                    "internalType": "bytes32"
                }
            ],
            "anonymous": false
        },
        {
            "type": "event",
            "name": "BeaconUpgraded",
            "inputs": [
                {
                    "name": "beacon",
                    "type": "address",
                    "indexed": true,
                    "internalType": "address"
                }
            ],
            "anonymous": false
        },
        {
            "type": "event",
            "name": "Initialized",
            "inputs": [
                {
                    "name": "version",
                    "type": "uint8",
                    "indexed": false,
                    "internalType": "uint8"
                }
            ],
            "anonymous": false
        },
        {
            "type": "event",
            "name": "OwnershipTransferStarted",
            "inputs": [
                {
                    "name": "previousOwner",
                    "type": "address",
                    "indexed": true,
                    "internalType": "address"
                },
                {
                    "name": "newOwner",
                    "type": "address",
                    "indexed": true,
                    "internalType": "address"
                }
            ],
            "anonymous": false
        },
        {
            "type": "event",
            "name": "OwnershipTransferred",
            "inputs": [
                {
                    "name": "previousOwner",
                    "type": "address",
                    "indexed": true,
                    "internalType": "address"
                },
                {
                    "name": "newOwner",
                    "type": "address",
                    "indexed": true,
                    "internalType": "address"
                }
            ],
            "anonymous": false
        },
        {
            "type": "event",
            "name": "Paused",
            "inputs": [
                {
                    "name": "account",
                    "type": "address",
                    "indexed": false,
                    "internalType": "address"
                }
            ],
            "anonymous": false
        },
        {
            "type": "event",
            "name": "Unpaused",
            "inputs": [
                {
                    "name": "account",
                    "type": "address",
                    "indexed": false,
                    "internalType": "address"
                }
            ],
            "anonymous": false
        },
        {
            "type": "event",
            "name": "Upgraded",
            "inputs": [
                {
                    "name": "implementation",
                    "type": "address",
                    "indexed": true,
                    "internalType": "address"
                }
            ],
            "anonymous": false
        },
        {
            "type": "event",
            "name": "Withdrawn",
            "inputs": [
                {
                    "name": "token",
                    "type": "address",
                    "indexed": false,
                    "internalType": "address"
                },
                {
                    "name": "to",
                    "type": "address",
                    "indexed": false,
                    "internalType": "address"
                },
                {
                    "name": "amount",
                    "type": "uint256",
                    "indexed": false,
                    "internalType": "uint256"
                }
            ],
            "anonymous": false
        },
        {
            "type": "error",
            "name": "ACCESS_DENIED",
            "inputs": []
        },
        {
            "type": "error",
            "name": "AncestorsHashMismatch",
            "inputs": []
        },
        {
            "type": "error",
            "name": "ETH_TRANSFER_FAILED",
            "inputs": []
        },
        {
            "type": "error",
            "name": "FUNC_NOT_IMPLEMENTED",
            "inputs": []
        },
        {
            "type": "error",
            "name": "INVALID_PAUSE_STATUS",
            "inputs": []
        },
        {
            "type": "error",
            "name": "InvalidAddress",
            "inputs": []
        },
        {
            "type": "error",
            "name": "InvalidAnchorBlockNumber",
            "inputs": []
        },
        {
            "type": "error",
            "name": "InvalidBlockIndex",
            "inputs": []
        },
        {
            "type": "error",
            "name": "InvalidL1ChainId",
            "inputs": []
        },
        {
            "type": "error",
            "name": "InvalidL2ChainId",
            "inputs": []
        },
        {
            "type": "error",
            "name": "InvalidSender",
            "inputs": []
        },
        {
            "type": "error",
            "name": "NonZeroAnchorBlockHash",
            "inputs": []
        },
        {
            "type": "error",
            "name": "NonZeroAnchorStateRoot",
            "inputs": []
        },
        {
            "type": "error",
            "name": "NonZeroBlockIndex",
            "inputs": []
        },
        {
            "type": "error",
            "name": "ProposalIdMismatch",
            "inputs": []
        },
        {
            "type": "error",
            "name": "ProposerMismatch",
            "inputs": []
        },
        {
            "type": "error",
            "name": "REENTRANT_CALL",
            "inputs": []
        },
        {
            "type": "error",
            "name": "ZERO_ADDRESS",
            "inputs": []
        },
        {
            "type": "error",
            "name": "ZERO_VALUE",
            "inputs": []
        },
        {
            "type": "error",
            "name": "ZeroBlockCount",
            "inputs": []
        }
    ],
    "bytecode": {
        "object": "0x61016060405230608052348015610014575f5ffd5b5060405161297738038061297783398101604081905261003391610200565b61003b61012d565b6001600160a01b0385166100625760405163e6c4247b60e01b815260040160405180910390fd5b6001600160a01b0384166100895760405163e6c4247b60e01b815260040160405180910390fd5b6001600160401b038116158015906100aa575046816001600160401b031614155b6100c75760405163ca40667b60e01b815260040160405180910390fd5b6001461180156100de57506001600160401b034611155b6100fb5760405163142d897560e31b815260040160405180910390fd5b6001600160a01b0394851660e0529290931660c05261010052610120919091526001600160401b031661014052610269565b5f54610100900460ff16156101985760405162461bcd60e51b815260206004820152602760248201527f496e697469616c697a61626c653a20636f6e747261637420697320696e697469604482015266616c697a696e6760c81b606482015260840160405180910390fd5b5f5460ff908116146101e7575f805460ff191660ff9081179091556040519081527f7f26b83ff96e1f2b6a682f133852f6798a09c465da95921460cefb38474024989060200160405180910390a15b565b6001600160a01b03811681146101fd575f5ffd5b50565b5f5f5f5f5f60a08688031215610214575f5ffd5b855161021f816101e9565b6020870151909550610230816101e9565b60408701516060880151608089015192965090945092506001600160401b038116811461025b575f5ffd5b809150509295509295909350565b60805160a05160c05160e05161010051610120516101405161267e6102f95f395f61027801525f61062401525f61065701525f818161048f015261142b01525f818161036101528181610e1a01528181610eeb0152818161124d015261131a01525f6101d701525f8181610997015281816109d701528181610ab901528181610af90152610b70015261267e5ff3fe6080604052600436106101c5575f3560e01c806379ba5097116100f2578063aade375b11610092578063d441422111610062578063d441422114610646578063e30c397814610679578063f2fde38b14610696578063f940e385146106b5575f5ffd5b8063aade375b14610514578063b3d5e45f146105b9578063c46e3a66146105fd578063cf1a0f2214610613575f5ffd5b80638da5cb5b116100cd5780638da5cb5b14610461578063955a72441461047e5780639ee512f2146104b1578063a37ea515146104d6575f5ffd5b806379ba5097146104255780638456cb59146104395780638abf60771461044d575f5ffd5b8063363cc427116101685780634f1ef286116101385780634f1ef286146103ca57806352d1902d146103dd5780635c975abb146103f1578063715018a614610411575f5ffd5b8063363cc427146103505780633644e515146103835780633659cfe6146103975780633f4ba83a146103b6575f5ffd5b806319ab453c116101a357806319ab453c146102b357806320ae54eb146102d45780633075db56146102f357806334cdf78d14610317575f5ffd5b806304f3bcec146101c95780630f439bd91461021457806312622e5b14610267575b5f5ffd5b3480156101d4575f5ffd5b507f00000000000000000000000000000000000000000000000000000000000000005b6040516001600160a01b0390911681526020015b60405180910390f35b34801561021f575f5ffd5b506040805180820182525f808252602091820152815180830183526101005465ffffffffffff168082526101015491830191825283519081529051918101919091520161020b565b348015610272575f5ffd5b5061029a7f000000000000000000000000000000000000000000000000000000000000000081565b60405167ffffffffffffffff909116815260200161020b565b3480156102be575f5ffd5b506102d26102cd366004612031565b6106d4565b005b3480156102df575f5ffd5b506102d26102ee366004612060565b6107e6565b3480156102fe575f5ffd5b50610307610967565b604051901515815260200161020b565b348015610322575f5ffd5b506103426103313660046120ac565b60fb6020525f908152604090205481565b60405190815260200161020b565b34801561035b575f5ffd5b506101f77f000000000000000000000000000000000000000000000000000000000000000081565b34801561038e575f5ffd5b5061034261097f565b3480156103a2575f5ffd5b506102d26103b1366004612031565b61098d565b3480156103c1575f5ffd5b506102d2610a54565b6102d26103d836600461218b565b610aaf565b3480156103e8575f5ffd5b50610342610b64565b3480156103fc575f5ffd5b5061030760c954610100900460ff1660021490565b34801561041c575f5ffd5b506102d2610c15565b348015610430575f5ffd5b506102d2610c26565b348015610444575f5ffd5b506102d2610c9d565b348015610458575f5ffd5b506101f7610cf2565b34801561046c575f5ffd5b506033546001600160a01b03166101f7565b348015610489575f5ffd5b506101f77f000000000000000000000000000000000000000000000000000000000000000081565b3480156104bc575f5ffd5b506101f771777735367b36bc9b61c50022d9d0700db4ec81565b3480156104e1575f5ffd5b506104f56104f0366004612229565b610cfb565b604080516001600160a01b03909316835260208301919091520161020b565b34801561051f575f5ffd5b50610584604080516060810182525f8082526020820181905291810191909152506040805160608101825260ff80546001600160a01b0381168352600160a01b810490911615156020830152600160a81b900465ffffffffffff169181019190915290565b6040805182516001600160a01b031681526020808401511515908201529181015165ffffffffffff169082015260600161020b565b3480156105c4575f5ffd5b506105d86105d3366004612286565b610ddb565b6040805193151584526001600160a01b0390921660208401529082015260600161020b565b348015610608575f5ffd5b5061029a620f424081565b34801561061e575f5ffd5b506103427f000000000000000000000000000000000000000000000000000000000000000081565b348015610651575f5ffd5b506103427f000000000000000000000000000000000000000000000000000000000000000081565b348015610684575f5ffd5b506065546001600160a01b03166101f7565b3480156106a1575f5ffd5b506102d26106b0366004612031565b610f7e565b3480156106c0575f5ffd5b506102d26106cf3660046122f7565b610fef565b5f54610100900460ff16158080156106f257505f54600160ff909116105b8061070b5750303b15801561070b57505f5460ff166001145b6107735760405162461bcd60e51b815260206004820152602e60248201527f496e697469616c697a61626c653a20636f6e747261637420697320616c72656160448201526d191e481a5b9a5d1a585b1a5e995960921b60648201526084015b60405180910390fd5b5f805460ff191660011790558015610794575f805461ff0019166101001790555b61079d8261112b565b80156107e2575f805461ff0019169055604051600181527f7f26b83ff96e1f2b6a682f133852f6798a09c465da95921460cefb38474024989060200160405180910390a15b5050565b3371777735367b36bc9b61c50022d9d0700db4ec1461081857604051636edaef2f60e11b815260040160405180910390fd5b610820611189565b61082a60026111b8565b60ff54600160a81b900465ffffffffffff168061084a602085018561231f565b65ffffffffffff1610156108715760405163229329c760e01b815260040160405180910390fd5b5f65ffffffffffff8216610888602086018661231f565b65ffffffffffff1611905080156108a2576108a2846111ce565b6101005465ffffffffffff166108b7846113ae565b5f6108c3600143612338565b5f81815260fb60209081526040918290208340905560ff8054610100546101015485516001600160a01b0384168152600160a01b9093049093161515938201939093528715158185015265ffffffffffff8781166060830152909216608083015260a082015290519192507fc6608ecda33eb1305da0b5a63c1530d34700238760ceb711e89ed5c5f171e8be919081900360c00190a1505050506107e260016111b8565b5f600261097660c95460ff1690565b60ff1614905090565b5f610988611513565b905090565b6001600160a01b037f00000000000000000000000000000000000000000000000000000000000000001630036109d55760405162461bcd60e51b815260040161076a90612357565b7f00000000000000000000000000000000000000000000000000000000000000006001600160a01b0316610a076115b7565b6001600160a01b031614610a2d5760405162461bcd60e51b815260040161076a906123a3565b610a36816115d2565b604080515f80825260208201909252610a51918391906115da565b50565b610a5c611744565b610a7060c9805461ff001916610100179055565b6040513381527f5db9ee0a495bf2e6ff9c91a7834c1ba4fdd244a5e8aa4e537bd38aeae4b073aa9060200160405180910390a1610aad335f611775565b565b6001600160a01b037f0000000000000000000000000000000000000000000000000000000000000000163003610af75760405162461bcd60e51b815260040161076a90612357565b7f00000000000000000000000000000000000000000000000000000000000000006001600160a01b0316610b296115b7565b6001600160a01b031614610b4f5760405162461bcd60e51b815260040161076a906123a3565b610b58826115d2565b6107e2828260016115da565b5f306001600160a01b037f00000000000000000000000000000000000000000000000000000000000000001614610c035760405162461bcd60e51b815260206004820152603860248201527f555550535570677261646561626c653a206d757374206e6f742062652063616c60448201527f6c6564207468726f7567682064656c656761746563616c6c0000000000000000606482015260840161076a565b505f5160206126025f395f51905f5290565b610c1d611779565b610aad5f6117d3565b60655433906001600160a01b03168114610c945760405162461bcd60e51b815260206004820152602960248201527f4f776e61626c6532537465703a2063616c6c6572206973206e6f7420746865206044820152683732bb9037bbb732b960b91b606482015260840161076a565b610a51816117d3565b610ca56117ec565b60c9805461ff0019166102001790556040513381527f62e78cea01bee320cd4e420270b5ea74000d11b0c9f74754ebdbfc544b05a2589060200160405180910390a1610aad336001611775565b5f6109886115b7565b5f8060e1831015610d1057508390505f610dd2565b5f610d1d848601866123ef565b9050610d2a81888861181e565b610d3a57855f9250925050610dd2565b604181606001515114610d5357855f9250925050610dd2565b5f5f610d6b610d618461185e565b846060015161190e565b90925090505f816004811115610d8357610d83612487565b141580610d9757506001600160a01b038216155b15610daa57875f94509450505050610dd2565b819450876001600160a01b0316856001600160a01b031614610dce57826040015193505b5050505b94509492505050565b5f5f5f5f5f610dec8a8a8a8a610cfb565b60405163508b724360e11b81526001600160a01b038c81166004830152602482018390529294509092505f917f0000000000000000000000000000000000000000000000000000000000000000169063a116e48690604401602060405180830381865afa158015610e5f573d5f5f3e3d5ffd5b505050506040513d601f19601f82011682018060405250810190610e83919061249b565b905080610e9c576001875f955095509550505050610f73565b896001600160a01b0316836001600160a01b031603610ec6575f8a5f955095509550505050610f73565b60405163508b724360e11b81526001600160a01b0384811660048301525f60248301527f0000000000000000000000000000000000000000000000000000000000000000169063a116e48690604401602060405180830381865afa158015610f30573d5f5f3e3d5ffd5b505050506040513d601f19601f82011682018060405250810190610f54919061249b565b610f69575f8a5f955095509550505050610f73565b505f945090925090505b955095509592505050565b610f86611779565b606580546001600160a01b0383166001600160a01b03199091168117909155610fb76033546001600160a01b031690565b6001600160a01b03167f38d16b8cac22d99fc7c124b9cd0de2d3fa1faef420bfe791d8c362d765e2270060405160405180910390a350565b610ff7611779565b610fff611189565b61100960026111b8565b6001600160a01b0381166110305760405163e6c4247b60e01b815260040160405180910390fd5b5f6001600160a01b0383166110595750476110546001600160a01b03831682611950565b6110d5565b6040516370a0823160e01b81523060048201526001600160a01b038416906370a0823190602401602060405180830381865afa15801561109b573d5f5f3e3d5ffd5b505050506040513d601f19601f820116820180604052508101906110bf91906124ba565b90506110d56001600160a01b038416838361195b565b604080516001600160a01b038086168252841660208201529081018290527fd1c19fbcd4551a5edfb66d43d2e337c04837afda3482b42bdf569a8fccdae5fb9060600160405180910390a1506107e260016111b8565b5f54610100900460ff166111515760405162461bcd60e51b815260040161076a906124d1565b6111596119ad565b6111776001600160a01b0382161561117157816117d3565b336117d3565b5060c9805461ff001916610100179055565b600261119760c95460ff1690565b60ff1603610aad5760405163dfc60d8560e01b815260040160405180910390fd5b60c9805460ff191660ff92909216919091179055565b5f61120d6111df602084018461231f565b6111ef6040850160208601612031565b6111fc604086018661251c565b60ff546001600160a01b0316610ddb565b60ff8054931515600160a01b026001600160a81b03199094166001600160a01b039093169290921792909217905590508015611374576001600160a01b037f00000000000000000000000000000000000000000000000000000000000000001663391396de6112826040850160208601612031565b6040516001600160e01b031960e084901b1681526001600160a01b039091166004820152602481018490526044016020604051808303815f875af11580156112cc573d5f5f3e3d5ffd5b505050506040513d601f19601f820116820180604052508101906112f091906124ba565b5060ff54604051632f8cb47d60e21b81526001600160a01b039182166004820152602481018390527f00000000000000000000000000000000000000000000000000000000000000009091169063be32d1f4906044015f604051808303815f87803b15801561135d575f5ffd5b505af115801561136f573d5f5f3e3d5ffd5b505050505b611381602083018361231f565b60ff805465ffffffffffff92909216600160a81b0265ffffffffffff60a81b199092169190911790555050565b5f5f6113b86119d3565b610101549193509150156113e9576101015482146113e9576040516349645ffd60e01b815260040160405180910390fd5b6101018190556101005465ffffffffffff16611408602085018561231f565b65ffffffffffff16111561150e5760408051606081019091526001600160a01b037f0000000000000000000000000000000000000000000000000000000000000000169063c9a0b8c89080611460602088018861231f565b65ffffffffffff9081168252602088810135818401526040808a01359381019390935282516001600160e01b031960e087901b16815284519092166004830152830151602482015291015160448201526064015f604051808303815f87803b1580156114ca575f5ffd5b505af11580156114dc573d5f5f3e3d5ffd5b506114ee92505050602084018461231f565b610100805465ffffffffffff191665ffffffffffff929092169190911790555b505050565b604080517f8b73c3c69bb8fe3d512ecc4cf759cc79239f7b179b0ffacaa9a75d522b39400f60208201527f7893824cc05345e66765411bdc89b67d8e9de9babcc8cc47b79e1be815fcdc66918101919091527fc89efdaa54c0f20c7adf612882df0950f5a951637e0307cdcb4c672f298b8bc660608201524660808201523060a08201525f9060c00160405160208183030381529060405280519060200120905090565b5f5160206126025f395f51905f52546001600160a01b031690565b610a51611779565b7f4910fdfa16fed3260ed0e7147f7cc6da11a60208b5b9406d12a635614ffd91435460ff161561160d5761150e83611a70565b826001600160a01b03166352d1902d6040518163ffffffff1660e01b8152600401602060405180830381865afa925050508015611667575060408051601f3d908101601f19168201909252611664918101906124ba565b60015b6116ca5760405162461bcd60e51b815260206004820152602e60248201527f45524331393637557067726164653a206e657720696d706c656d656e7461746960448201526d6f6e206973206e6f74205555505360901b606482015260840161076a565b5f5160206126025f395f51905f5281146117385760405162461bcd60e51b815260206004820152602960248201527f45524331393637557067726164653a20756e737570706f727465642070726f786044820152681a58589b195555525160ba1b606482015260840161076a565b5061150e838383611b0b565b61175860c954610100900460ff1660021490565b610aad5760405163bae6e2a960e01b815260040160405180910390fd5b6107e25b6033546001600160a01b03163314610aad5760405162461bcd60e51b815260206004820181905260248201527f4f776e61626c653a2063616c6c6572206973206e6f7420746865206f776e6572604482015260640161076a565b606580546001600160a01b0319169055610a5181611b35565b61180060c954610100900460ff1660021490565b15610aad5760405163bae6e2a960e01b815260040160405180910390fd5b5f8265ffffffffffff16845f015165ffffffffffff161480156118565750816001600160a01b031684602001516001600160a01b0316145b949350505050565b5f5f6118da83805160208083015160409384015184517fed88a0cae89dd0c5217ed6cb075c1087a6230c0eb71389f7213d5f9c0b8eb27b8185015265ffffffffffff909416848601526001600160a01b0390911660608401526080808401919091528351808403909101815260a0909201909252805191012090565b90506119076118e7611513565b8260405161190160f01b8152600281019290925260228201526042902090565b9392505050565b5f5f8251604103611942576020830151604084015160608501515f1a61193687828585611b86565b94509450505050611949565b505f905060025b9250929050565b6107e282825a611c40565b604080516001600160a01b038416602482015260448082018490528251808303909101815260649091019091526020810180516001600160e01b031663a9059cbb60e01b17905261150e908490611c83565b5f54610100900460ff16610aad5760405162461bcd60e51b815260040161076a906124d1565b5f80806119e1600143612338565b90506119eb611ff6565b46611fe08201525f5b60ff81108015611a075750806001018310155b15611a38575f198184030180408360ff83066101008110611a2a57611a2a61255f565b6020020152506001016119f4565b5061200081209350814081611a4e60ff85612573565b6101008110611a5f57611a5f61255f565b602002015261200090209293915050565b6001600160a01b0381163b611add5760405162461bcd60e51b815260206004820152602d60248201527f455243313936373a206e657720696d706c656d656e746174696f6e206973206e60448201526c1bdd08184818dbdb9d1c9858dd609a1b606482015260840161076a565b5f5160206126025f395f51905f5280546001600160a01b0319166001600160a01b0392909216919091179055565b611b1483611d56565b5f82511180611b205750805b1561150e57611b2f8383611d95565b50505050565b603380546001600160a01b038381166001600160a01b0319831681179093556040519116919082907f8be0079c531659141344cd1fd0a4f28419497f9722a3daafe3b4186f6b6457e0905f90a35050565b5f807f7fffffffffffffffffffffffffffffff5d576e7357a4501ddfe92f46681b20a0831115611bbb57505f90506003610dd2565b604080515f8082526020820180845289905260ff881692820192909252606081018690526080810185905260019060a0016020604051602081039080840390855afa158015611c0c573d5f5f3e3d5ffd5b5050604051601f1901519150506001600160a01b038116611c34575f60019250925050610dd2565b965f9650945050505050565b815f03611c4c57505050565b611c6683838360405180602001604052805f815250611dc3565b61150e57604051634c67134d60e11b815260040160405180910390fd5b5f611cd7826040518060400160405280602081526020017f5361666545524332303a206c6f772d6c6576656c2063616c6c206661696c6564815250856001600160a01b0316611e009092919063ffffffff16565b905080515f1480611cf7575080806020019051810190611cf7919061249b565b61150e5760405162461bcd60e51b815260206004820152602a60248201527f5361666545524332303a204552433230206f7065726174696f6e20646964206e6044820152691bdd081cdd58d8d9595960b21b606482015260840161076a565b611d5f81611a70565b6040516001600160a01b038216907fbc7cd75a20ee27fd9adebab32041f755214dbc6bffa90cc0225b39da2e5c2d3b905f90a250565b6060611dba838360405180606001604052806027815260200161262260279139611e0e565b90505b92915050565b5f6001600160a01b038516611deb57604051634c67134d60e11b815260040160405180910390fd5b5f5f835160208501878988f195945050505050565b606061185684845f85611e82565b60605f5f856001600160a01b031685604051611e2a91906125b4565b5f60405180830381855af49150503d805f8114611e62576040519150601f19603f3d011682016040523d82523d5f602084013e611e67565b606091505b5091509150611e7886838387611f59565b9695505050505050565b606082471015611ee35760405162461bcd60e51b815260206004820152602660248201527f416464726573733a20696e73756666696369656e742062616c616e636520666f6044820152651c8818d85b1b60d21b606482015260840161076a565b5f5f866001600160a01b03168587604051611efe91906125b4565b5f6040518083038185875af1925050503d805f8114611f38576040519150601f19603f3d011682016040523d82523d5f602084013e611f3d565b606091505b5091509150611f4e87838387611f59565b979650505050505050565b60608315611fc75782515f03611fc0576001600160a01b0385163b611fc05760405162461bcd60e51b815260206004820152601d60248201527f416464726573733a2063616c6c20746f206e6f6e2d636f6e7472616374000000604482015260640161076a565b5081611856565b6118568383815115611fdc5781518083602001fd5b8060405162461bcd60e51b815260040161076a91906125cf565b604051806120000160405280610100906020820280368337509192915050565b80356001600160a01b038116811461202c575f5ffd5b919050565b5f60208284031215612041575f5ffd5b611dba82612016565b5f6060828403121561205a575f5ffd5b50919050565b5f5f60808385031215612071575f5ffd5b823567ffffffffffffffff811115612087575f5ffd5b6120938582860161204a565b9250506120a3846020850161204a565b90509250929050565b5f602082840312156120bc575f5ffd5b5035919050565b634e487b7160e01b5f52604160045260245ffd5b6040516080810167ffffffffffffffff811182821017156120fa576120fa6120c3565b60405290565b5f82601f83011261210f575f5ffd5b813567ffffffffffffffff811115612129576121296120c3565b604051601f8201601f19908116603f0116810167ffffffffffffffff81118282101715612158576121586120c3565b60405281815283820160200185101561216f575f5ffd5b816020850160208301375f918101602001919091529392505050565b5f5f6040838503121561219c575f5ffd5b6121a583612016565b9150602083013567ffffffffffffffff8111156121c0575f5ffd5b6121cc85828601612100565b9150509250929050565b803565ffffffffffff8116811461202c575f5ffd5b5f5f83601f8401126121fb575f5ffd5b50813567ffffffffffffffff811115612212575f5ffd5b602083019150836020828501011115611949575f5ffd5b5f5f5f5f6060858703121561223c575f5ffd5b612245856121d6565b935061225360208601612016565b9250604085013567ffffffffffffffff81111561226e575f5ffd5b61227a878288016121eb565b95989497509550505050565b5f5f5f5f5f6080868803121561229a575f5ffd5b6122a3866121d6565b94506122b160208701612016565b9350604086013567ffffffffffffffff8111156122cc575f5ffd5b6122d8888289016121eb565b90945092506122eb905060608701612016565b90509295509295909350565b5f5f60408385031215612308575f5ffd5b61231183612016565b91506120a360208401612016565b5f6020828403121561232f575f5ffd5b611dba826121d6565b81810381811115611dbd57634e487b7160e01b5f52601160045260245ffd5b6020808252602c908201527f46756e6374696f6e206d7573742062652063616c6c6564207468726f7567682060408201526b19195b1959d85d1958d85b1b60a21b606082015260800190565b6020808252602c908201527f46756e6374696f6e206d7573742062652063616c6c6564207468726f7567682060408201526b6163746976652070726f787960a01b606082015260800190565b5f602082840312156123ff575f5ffd5b813567ffffffffffffffff811115612415575f5ffd5b820160808185031215612426575f5ffd5b61242e6120d7565b612437826121d6565b815261244560208301612016565b602082015260408281013590820152606082013567ffffffffffffffff81111561246d575f5ffd5b61247986828501612100565b606083015250949350505050565b634e487b7160e01b5f52602160045260245ffd5b5f602082840312156124ab575f5ffd5b81518015158114611907575f5ffd5b5f602082840312156124ca575f5ffd5b5051919050565b6020808252602b908201527f496e697469616c697a61626c653a20636f6e7472616374206973206e6f74206960408201526a6e697469616c697a696e6760a81b606082015260800190565b5f5f8335601e19843603018112612531575f5ffd5b83018035915067ffffffffffffffff82111561254b575f5ffd5b602001915036819003821315611949575f5ffd5b634e487b7160e01b5f52603260045260245ffd5b5f8261258d57634e487b7160e01b5f52601260045260245ffd5b500690565b5f5b838110156125ac578181015183820152602001612594565b50505f910152565b5f82516125c5818460208701612592565b9190910192915050565b602081525f82518060208401526125ed816040850160208701612592565b601f01601f1916919091016040019291505056fe360894a13ba1a3210667c828492db98dca3e2076cc3735a920a3ca505d382bbc416464726573733a206c6f772d6c6576656c2064656c65676174652063616c6c206661696c6564a26469706673582212206bb269fbc071df5df9313c28709c52f992d8f34d79375ace5c2fccd7197d406b64736f6c634300081e0033",
        "linkReferences": {}
    },
    "methodIdentifiers": {
        "ANCHOR_GAS_LIMIT()": "c46e3a66",
        "DOMAIN_SEPARATOR()": "3644e515",
        "GOLDEN_TOUCH_ADDRESS()": "9ee512f2",
        "acceptOwnership()": "79ba5097",
        "anchorV4((uint48,address,bytes),(uint48,bytes32,bytes32))": "20ae54eb",
        "blockHashes(uint256)": "34cdf78d",
        "bondManager()": "363cc427",
        "checkpointStore()": "955a7244",
        "getBlockState()": "0f439bd9",
        "getDesignatedProver(uint48,address,bytes,address)": "b3d5e45f",
        "getProposalState()": "aade375b",
        "impl()": "8abf6077",
        "inNonReentrant()": "3075db56",
        "init(address)": "19ab453c",
        "l1ChainId()": "12622e5b",
        "livenessBond()": "d4414221",
        "owner()": "8da5cb5b",
        "pause()": "8456cb59",
        "paused()": "5c975abb",
        "pendingOwner()": "e30c3978",
        "provabilityBond()": "cf1a0f22",
        "proxiableUUID()": "52d1902d",
        "renounceOwnership()": "715018a6",
        "resolver()": "04f3bcec",
        "transferOwnership(address)": "f2fde38b",
        "unpause()": "3f4ba83a",
        "upgradeTo(address)": "3659cfe6",
        "upgradeToAndCall(address,bytes)": "4f1ef286",
        "validateProverAuth(uint48,address,bytes)": "a37ea515",
        "withdraw(address,address)": "f940e385"
    },
    "storageLayout": {
        "storage": [
            {
                "astId": 12050,
                "contract": "contracts/layer2/core/Anchor.sol:Anchor",
                "label": "_initialized",
                "offset": 0,
                "slot": "0",
                "type": "t_uint8"
            },
            {
                "astId": 12053,
                "contract": "contracts/layer2/core/Anchor.sol:Anchor",
                "label": "_initializing",
                "offset": 1,
                "slot": "0",
                "type": "t_bool"
            },
            {
                "astId": 16884,
                "contract": "contracts/layer2/core/Anchor.sol:Anchor",
                "label": "__gap",
                "offset": 0,
                "slot": "1",
                "type": "t_array(t_uint256)50_storage"
            },
            {
                "astId": 11795,
                "contract": "contracts/layer2/core/Anchor.sol:Anchor",
                "label": "_owner",
                "offset": 0,
                "slot": "51",
                "type": "t_address"
            },
            {
                "astId": 11915,
                "contract": "contracts/layer2/core/Anchor.sol:Anchor",
                "label": "__gap",
                "offset": 0,
                "slot": "52",
                "type": "t_array(t_uint256)49_storage"
            },
            {
                "astId": 11688,
                "contract": "contracts/layer2/core/Anchor.sol:Anchor",
                "label": "_pendingOwner",
                "offset": 0,
                "slot": "101",
                "type": "t_address"
            },
            {
                "astId": 11782,
                "contract": "contracts/layer2/core/Anchor.sol:Anchor",
                "label": "__gap",
                "offset": 0,
                "slot": "102",
                "type": "t_array(t_uint256)49_storage"
            },
            {
                "astId": 4680,
                "contract": "contracts/layer2/core/Anchor.sol:Anchor",
                "label": "__gapFromOldAddressResolver",
                "offset": 0,
                "slot": "151",
                "type": "t_array(t_uint256)50_storage"
            },
            {
                "astId": 4683,
                "contract": "contracts/layer2/core/Anchor.sol:Anchor",
                "label": "__reentry",
                "offset": 0,
                "slot": "201",
                "type": "t_uint8"
            },
            {
                "astId": 4685,
                "contract": "contracts/layer2/core/Anchor.sol:Anchor",
                "label": "__paused",
                "offset": 1,
                "slot": "201",
                "type": "t_uint8"
            },
            {
                "astId": 4689,
                "contract": "contracts/layer2/core/Anchor.sol:Anchor",
                "label": "__gap",
                "offset": 0,
                "slot": "202",
                "type": "t_array(t_uint256)49_storage"
            },
            {
                "astId": 474,
                "contract": "contracts/layer2/core/Anchor.sol:Anchor",
                "label": "blockHashes",
                "offset": 0,
                "slot": "251",
                "type": "t_mapping(t_uint256,t_bytes32)"
            },
            {
                "astId": 479,
                "contract": "contracts/layer2/core/Anchor.sol:Anchor",
                "label": "_pacayaSlots",
                "offset": 0,
                "slot": "252",
                "type": "t_array(t_uint256)3_storage"
            },
            {
                "astId": 483,
                "contract": "contracts/layer2/core/Anchor.sol:Anchor",
                "label": "_proposalState",
                "offset": 0,
                "slot": "255",
                "type": "t_struct(ProposalState)409_storage"
            },
            {
                "astId": 487,
                "contract": "contracts/layer2/core/Anchor.sol:Anchor",
                "label": "_blockState",
                "offset": 0,
                "slot": "256",
                "type": "t_struct(BlockState)415_storage"
            },
            {
                "astId": 492,
                "contract": "contracts/layer2/core/Anchor.sol:Anchor",
                "label": "__gap",
                "offset": 0,
                "slot": "258",
                "type": "t_array(t_uint256)41_storage"
            }
        ],
        "types": {
            "t_address": {
                "encoding": "inplace",
                "label": "address",
                "numberOfBytes": "20"
            },
            "t_array(t_uint256)3_storage": {
                "encoding": "inplace",
                "label": "uint256[3]",
                "numberOfBytes": "96",
                "base": "t_uint256"
            },
            "t_array(t_uint256)41_storage": {
                "encoding": "inplace",
                "label": "uint256[41]",
                "numberOfBytes": "1312",
                "base": "t_uint256"
            },
            "t_array(t_uint256)49_storage": {
                "encoding": "inplace",
                "label": "uint256[49]",
                "numberOfBytes": "1568",
                "base": "t_uint256"
            },
            "t_array(t_uint256)50_storage": {
                "encoding": "inplace",
                "label": "uint256[50]",
                "numberOfBytes": "1600",
                "base": "t_uint256"
            },
            "t_bool": {
                "encoding": "inplace",
                "label": "bool",
                "numberOfBytes": "1"
            },
            "t_bytes32": {
                "encoding": "inplace",
                "label": "bytes32",
                "numberOfBytes": "32"
            },
            "t_mapping(t_uint256,t_bytes32)": {
                "encoding": "mapping",
                "key": "t_uint256",
                "label": "mapping(uint256 => bytes32)",
                "numberOfBytes": "32",
                "value": "t_bytes32"
            },
            "t_struct(BlockState)415_storage": {
                "encoding": "inplace",
                "label": "struct Anchor.BlockState",
                "numberOfBytes": "64",
                "members": [
                    {
                        "astId": 412,
                        "contract": "contracts/layer2/core/Anchor.sol:Anchor",
                        "label": "anchorBlockNumber",
                        "offset": 0,
                        "slot": "0",
                        "type": "t_uint48"
                    },
                    {
                        "astId": 414,
                        "contract": "contracts/layer2/core/Anchor.sol:Anchor",
                        "label": "ancestorsHash",
                        "offset": 0,
                        "slot": "1",
                        "type": "t_bytes32"
                    }
                ]
            },
            "t_struct(ProposalState)409_storage": {
                "encoding": "inplace",
                "label": "struct Anchor.ProposalState",
                "numberOfBytes": "32",
                "members": [
                    {
                        "astId": 404,
                        "contract": "contracts/layer2/core/Anchor.sol:Anchor",
                        "label": "designatedProver",
                        "offset": 0,
                        "slot": "0",
                        "type": "t_address"
                    },
                    {
                        "astId": 406,
                        "contract": "contracts/layer2/core/Anchor.sol:Anchor",
                        "label": "isLowBondProposal",
                        "offset": 20,
                        "slot": "0",
                        "type": "t_bool"
                    },
                    {
                        "astId": 408,
                        "contract": "contracts/layer2/core/Anchor.sol:Anchor",
                        "label": "proposalId",
                        "offset": 21,
                        "slot": "0",
                        "type": "t_uint48"
                    }
                ]
            },
            "t_uint256": {
                "encoding": "inplace",
                "label": "uint256",
                "numberOfBytes": "32"
            },
            "t_uint48": {
                "encoding": "inplace",
                "label": "uint48",
                "numberOfBytes": "6"
            },
            "t_uint8": {
                "encoding": "inplace",
                "label": "uint8",
                "numberOfBytes": "1"
            }
        }
    },
    "id": 4
}