{"abi":[{"type":"constructor","inputs":[{"name":"_checkpointStore","type":"address","internalType":"contract ICheckpointStore"},{"name":"_bondManager","type":"address","internalType":"contract IBondManager"},{"name":"_livenessBond","type":"uint256","internalType":"uint256"},{"name":"_l1ChainId","type":"uint64","internalType":"uint64"}],"stateMutability":"nonpayable"},{"type":"function","name":"ANCHOR_GAS_LIMIT","inputs":[],"outputs":[{"name":"","type":"uint64","internalType":"uint64"}],"stateMutability":"view"},{"type":"function","name":"DOMAIN_SEPARATOR","inputs":[],"outputs":[{"name":"","type":"bytes32","internalType":"bytes32"}],"stateMutability":"view"},{"type":"function","name":"GOLDEN_TOUCH_ADDRESS","inputs":[],"outputs":[{"name":"","type":"address","internalType":"address"}],"stateMutability":"view"},{"type":"function","name":"acceptOwnership","inputs":[],"outputs":[],"stateMutability":"nonpayable"},{"type":"function","name":"anchorV4","inputs":[{"name":"_proposalParams","type":"tuple","internalType":"struct Anchor.ProposalParams","components":[{"name":"proposalId","type":"uint48","internalType":"uint48"},{"name":"proposer","type":"address","internalType":"address"},{"name":"proverAuth","type":"bytes","internalType":"bytes"}]},{"name":"_checkpoint","type":"tuple","internalType":"struct ICheckpointStore.Checkpoint","components":[{"name":"blockNumber","type":"uint48","internalType":"uint48"},{"name":"blockHash","type":"bytes32","internalType":"bytes32"},{"name":"stateRoot","type":"bytes32","internalType":"bytes32"}]}],"outputs":[],"stateMutability":"nonpayable"},{"type":"function","name":"blockHashes","inputs":[{"name":"blockNumber","type":"uint256","internalType":"uint256"}],"outputs":[{"name":"blockHash","type":"bytes32","internalType":"bytes32"}],"stateMutability":"view"},{"type":"function","name":"bondManager","inputs":[],"outputs":[{"name":"","type":"address","internalType":"contract IBondManager"}],"stateMutability":"view"},{"type":"function","name":"checkpointStore","inputs":[],"outputs":[{"name":"","type":"address","internalType":"contract ICheckpointStore"}],"stateMutability":"view"},{"type":"function","name":"decodeProverAuth","inputs":[{"name":"_proverAuth","type":"bytes","internalType":"bytes"}],"outputs":[{"name":"","type":"tuple","internalType":"struct Anchor.ProverAuth","components":[{"name":"proposalId","type":"uint48","internalType":"uint48"},{"name":"proposer","type":"address","internalType":"address"},{"name":"provingFee","type":"uint256","internalType":"uint256"},{"name":"signature","type":"bytes","internalType":"bytes"}]}],"stateMutability":"pure"},{"type":"function","name":"getBlockState","inputs":[],"outputs":[{"name":"","type":"tuple","internalType":"struct Anchor.BlockState","components":[{"name":"anchorBlockNumber","type":"uint48","internalType":"uint48"},{"name":"ancestorsHash","type":"bytes32","internalType":"bytes32"}]}],"stateMutability":"view"},{"type":"function","name":"getDesignatedProver","inputs":[{"name":"_proposalId","type":"uint48","internalType":"uint48"},{"name":"_proposer","type":"address","internalType":"address"},{"name":"_proverAuth","type":"bytes","internalType":"bytes"},{"name":"_currentDesignatedProver","type":"address","internalType":"address"}],"outputs":[{"name":"isLowBondProposal_","type":"bool","internalType":"bool"},{"name":"designatedProver_","type":"address","internalType":"address"},{"name":"provingFeeToTransfer_","type":"uint256","internalType":"uint256"}],"stateMutability":"view"},{"type":"function","name":"getProposalState","inputs":[],"outputs":[{"name":"","type":"tuple","internalType":"struct Anchor.ProposalState","components":[{"name":"designatedProver","type":"address","internalType":"address"},{"name":"isLowBondProposal","type":"bool","internalType":"bool"},{"name":"proposalId","type":"uint48","internalType":"uint48"}]}],"stateMutability":"view"},{"type":"function","name":"impl","inputs":[],"outputs":[{"name":"","type":"address","internalType":"address"}],"stateMutability":"view"},{"type":"function","name":"inNonReentrant","inputs":[],"outputs":[{"name":"","type":"bool","internalType":"bool"}],"stateMutability":"view"},{"type":"function","name":"init","inputs":[{"name":"_owner","type":"address","internalType":"address"}],"outputs":[],"stateMutability":"nonpayable"},{"type":"function","name":"l1ChainId","inputs":[],"outputs":[{"name":"","type":"uint64","internalType":"uint64"}],"stateMutability":"view"},{"type":"function","name":"livenessBond","inputs":[],"outputs":[{"name":"","type":"uint256","internalType":"uint256"}],"stateMutability":"view"},{"type":"function","name":"owner","inputs":[],"outputs":[{"name":"","type":"address","internalType":"address"}],"stateMutability":"view"},{"type":"function","name":"pause","inputs":[],"outputs":[],"stateMutability":"nonpayable"},{"type":"function","name":"paused","inputs":[],"outputs":[{"name":"","type":"bool","internalType":"bool"}],"stateMutability":"view"},{"type":"function","name":"pendingOwner","inputs":[],"outputs":[{"name":"","type":"address","internalType":"address"}],"stateMutability":"view"},{"type":"function","name":"proxiableUUID","inputs":[],"outputs":[{"name":"","type":"bytes32","internalType":"bytes32"}],"stateMutability":"view"},{"type":"function","name":"renounceOwnership","inputs":[],"outputs":[],"stateMutability":"nonpayable"},{"type":"function","name":"resolver","inputs":[],"outputs":[{"name":"","type":"address","internalType":"address"}],"stateMutability":"view"},{"type":"function","name":"transferOwnership","inputs":[{"name":"newOwner","type":"address","internalType":"address"}],"outputs":[],"stateMutability":"nonpayable"},{"type":"function","name":"unpause","inputs":[],"outputs":[],"stateMutability":"nonpayable"},{"type":"function","name":"upgradeTo","inputs":[{"name":"newImplementation","type":"address","internalType":"address"}],"outputs":[],"stateMutability":"nonpayable"},{"type":"function","name":"upgradeToAndCall","inputs":[{"name":"newImplementation","type":"address","internalType":"address"},{"name":"data","type":"bytes","internalType":"bytes"}],"outputs":[],"stateMutability":"payable"},{"type":"function","name":"validateProverAuth","inputs":[{"name":"_proposalId","type":"uint48","internalType":"uint48"},{"name":"_proposer","type":"address","internalType":"address"},{"name":"_proverAuth","type":"bytes","internalType":"bytes"}],"outputs":[{"name":"signer_","type":"address","internalType":"address"},{"name":"provingFee_","type":"uint256","internalType":"uint256"}],"stateMutability":"view"},{"type":"function","name":"withdraw","inputs":[{"name":"_token","type":"address","internalType":"address"},{"name":"_to","type":"address","internalType":"address"}],"outputs":[],"stateMutability":"nonpayable"},{"type":"event","name":"AdminChanged","inputs":[{"name":"previousAdmin","type":"address","indexed":false,"internalType":"address"},{"name":"newAdmin","type":"address","indexed":false,"internalType":"address"}],"anonymous":false},{"type":"event","name":"Anchored","inputs":[{"name":"proposalId","type":"uint48","indexed":true,"internalType":"uint48"},{"name":"isNewProposal","type":"bool","indexed":true,"internalType":"bool"},{"name":"isLowBondProposal","type":"bool","indexed":true,"internalType":"bool"},{"name":"designatedProver","type":"address","indexed":false,"internalType":"address"},{"name":"prevAnchorBlockNumber","type":"uint48","indexed":false,"internalType":"uint48"},{"name":"anchorBlockNumber","type":"uint48","indexed":false,"internalType":"uint48"},{"name":"ancestorsHash","type":"bytes32","indexed":false,"internalType":"bytes32"}],"anonymous":false},{"type":"event","name":"BeaconUpgraded","inputs":[{"name":"beacon","type":"address","indexed":true,"internalType":"address"}],"anonymous":false},{"type":"event","name":"Initialized","inputs":[{"name":"version","type":"uint8","indexed":false,"internalType":"uint8"}],"anonymous":false},{"type":"event","name":"OwnershipTransferStarted","inputs":[{"name":"previousOwner","type":"address","indexed":true,"internalType":"address"},{"name":"newOwner","type":"address","indexed":true,"internalType":"address"}],"anonymous":false},{"type":"event","name":"OwnershipTransferred","inputs":[{"name":"previousOwner","type":"address","indexed":true,"internalType":"address"},{"name":"newOwner","type":"address","indexed":true,"internalType":"address"}],"anonymous":false},{"type":"event","name":"Paused","inputs":[{"name":"account","type":"address","indexed":false,"internalType":"address"}],"anonymous":false},{"type":"event","name":"Unpaused","inputs":[{"name":"account","type":"address","indexed":false,"internalType":"address"}],"anonymous":false},{"type":"event","name":"Upgraded","inputs":[{"name":"implementation","type":"address","indexed":true,"internalType":"address"}],"anonymous":false},{"type":"event","name":"Withdrawn","inputs":[{"name":"token","type":"address","indexed":false,"internalType":"address"},{"name":"to","type":"address","indexed":false,"internalType":"address"},{"name":"amount","type":"uint256","indexed":false,"internalType":"uint256"}],"anonymous":false},{"type":"error","name":"ACCESS_DENIED","inputs":[]},{"type":"error","name":"AncestorsHashMismatch","inputs":[]},{"type":"error","name":"ETH_TRANSFER_FAILED","inputs":[]},{"type":"error","name":"FUNC_NOT_IMPLEMENTED","inputs":[]},{"type":"error","name":"INVALID_PAUSE_STATUS","inputs":[]},{"type":"error","name":"InvalidAddress","inputs":[]},{"type":"error","name":"InvalidL1ChainId","inputs":[]},{"type":"error","name":"InvalidL2ChainId","inputs":[]},{"type":"error","name":"InvalidSender","inputs":[]},{"type":"error","name":"ProposalIdMismatch","inputs":[]},{"type":"error","name":"REENTRANT_CALL","inputs":[]},{"type":"error","name":"ZERO_ADDRESS","inputs":[]},{"type":"error","name":"ZERO_VALUE","inputs":[]}],"bytecode":{"object":"0x61014060405230608052348015610014575f5ffd5b50604051612bb9380380612bb9833981016040819052610033916101fc565b61003b610129565b6001600160a01b0384166100625760405163e6c4247b60e01b815260040160405180910390fd5b6001600160a01b0383166100895760405163e6c4247b60e01b815260040160405180910390fd5b6001600160401b038116158015906100aa575046816001600160401b031614155b6100c75760405163ca40667b60e01b815260040160405180910390fd5b6001461180156100de57506001600160401b034611155b6100fb5760405163142d897560e31b815260040160405180910390fd5b6001600160a01b0393841660e0529190921660c052610100919091526001600160401b031661012052610259565b5f54610100900460ff16156101945760405162461bcd60e51b815260206004820152602760248201527f496e697469616c697a61626c653a20636f6e747261637420697320696e697469604482015266616c697a696e6760c81b606482015260840160405180910390fd5b5f5460ff908116146101e3575f805460ff191660ff9081179091556040519081527f7f26b83ff96e1f2b6a682f133852f6798a09c465da95921460cefb38474024989060200160405180910390a15b565b6001600160a01b03811681146101f9575f5ffd5b50565b5f5f5f5f6080858703121561020f575f5ffd5b845161021a816101e5565b602086015190945061022b816101e5565b6040860151606087015191945092506001600160401b038116811461024e575f5ffd5b939692955090935050565b60805160a05160c05160e05161010051610120516128da6102df5f395f61027801525f61064f01525f818161048e01526114fa01525f818161036001528181610ece01528181610fb80152818161131a01526113e701525f6101d701525f8181610991015281816109d101528181610ab301528181610af30152610b6a01526128da5ff3fe6080604052600436106101c5575f3560e01c806379ba5097116100f2578063aade375b11610092578063d441422111610062578063d44142211461063e578063e30c397814610671578063f2fde38b1461068e578063f940e385146106ad575f5ffd5b8063aade375b14610513578063b35893fb146105b8578063b3d5e45f146105e4578063c46e3a6614610628575f5ffd5b80638da5cb5b116100cd5780638da5cb5b14610460578063955a72441461047d5780639ee512f2146104b0578063a37ea515146104d5575f5ffd5b806379ba5097146104245780638456cb59146104385780638abf60771461044c575f5ffd5b8063363cc427116101685780634f1ef286116101385780634f1ef286146103c957806352d1902d146103dc5780635c975abb146103f0578063715018a614610410575f5ffd5b8063363cc4271461034f5780633644e515146103825780633659cfe6146103965780633f4ba83a146103b5575f5ffd5b806319ab453c116101a357806319ab453c146102b257806320ae54eb146102d35780633075db56146102f257806334cdf78d14610316575f5ffd5b806304f3bcec146101c95780630f439bd91461021457806312622e5b14610267575b5f5ffd5b3480156101d4575f5ffd5b507f00000000000000000000000000000000000000000000000000000000000000005b6040516001600160a01b0390911681526020015b60405180910390f35b34801561021f575f5ffd5b506040805180820182525f808252602091820152815180830183526101005465ffffffffffff168082526101015491830191825283519081529051918101919091520161020b565b348015610272575f5ffd5b5061029a7f000000000000000000000000000000000000000000000000000000000000000081565b6040516001600160401b03909116815260200161020b565b3480156102bd575f5ffd5b506102d16102cc36600461209d565b6106cc565b005b3480156102de575f5ffd5b506102d16102ed3660046120ce565b6107de565b3480156102fd575f5ffd5b50610306610961565b604051901515815260200161020b565b348015610321575f5ffd5b50610341610330366004612119565b60fb6020525f908152604090205481565b60405190815260200161020b565b34801561035a575f5ffd5b506101f77f000000000000000000000000000000000000000000000000000000000000000081565b34801561038d575f5ffd5b50610341610979565b3480156103a1575f5ffd5b506102d16103b036600461209d565b610987565b3480156103c0575f5ffd5b506102d1610a4e565b6102d16103d7366004612214565b610aa9565b3480156103e7575f5ffd5b50610341610b5e565b3480156103fb575f5ffd5b5061030660c954610100900460ff1660021490565b34801561041b575f5ffd5b506102d1610c0f565b34801561042f575f5ffd5b506102d1610c20565b348015610443575f5ffd5b506102d1610c97565b348015610457575f5ffd5b506101f7610cec565b34801561046b575f5ffd5b506033546001600160a01b03166101f7565b348015610488575f5ffd5b506101f77f000000000000000000000000000000000000000000000000000000000000000081565b3480156104bb575f5ffd5b506101f771777735367b36bc9b61c50022d9d0700db4ec81565b3480156104e0575f5ffd5b506104f46104ef3660046122b0565b610cf5565b604080516001600160a01b03909316835260208301919091520161020b565b34801561051e575f5ffd5b50610583604080516060810182525f8082526020820181905291810191909152506040805160608101825260ff80546001600160a01b0381168352600160a01b810490911615156020830152600160a81b900465ffffffffffff169181019190915290565b6040805182516001600160a01b031681526020808401511515908201529181015165ffffffffffff169082015260600161020b565b3480156105c3575f5ffd5b506105d76105d2366004612310565b610e58565b60405161020b919061239b565b3480156105ef575f5ffd5b506106036105fe3660046123e3565b610e8f565b6040805193151584526001600160a01b0390921660208401529082015260600161020b565b348015610633575f5ffd5b5061029a620f424081565b348015610649575f5ffd5b506103417f000000000000000000000000000000000000000000000000000000000000000081565b34801561067c575f5ffd5b506065546001600160a01b03166101f7565b348015610699575f5ffd5b506102d16106a836600461209d565b61104b565b3480156106b8575f5ffd5b506102d16106c736600461245a565b6110bc565b5f54610100900460ff16158080156106ea57505f54600160ff909116105b806107035750303b15801561070357505f5460ff166001145b61076b5760405162461bcd60e51b815260206004820152602e60248201527f496e697469616c697a61626c653a20636f6e747261637420697320616c72656160448201526d191e481a5b9a5d1a585b1a5e995960921b60648201526084015b60405180910390fd5b5f805460ff19166001179055801561078c575f805461ff0019166101001790555b610795826111f8565b80156107da575f805461ff0019169055604051600181527f7f26b83ff96e1f2b6a682f133852f6798a09c465da95921460cefb38474024989060200160405180910390a15b5050565b3371777735367b36bc9b61c50022d9d0700db4ec1461081057604051636edaef2f60e11b815260040160405180910390fd5b610818611256565b6108226002611285565b60ff54600160a81b900465ffffffffffff16806108426020850185612491565b65ffffffffffff1610156108695760405163229329c760e01b815260040160405180910390fd5b5f65ffffffffffff82166108806020860186612491565b65ffffffffffff16119050801561089a5761089a8461129b565b6101005465ffffffffffff166108af8461147b565b5f6108bb6001436124ac565b5f81815260fb60209081526040918290208340905560ff8054610100546101015485516001600160a01b038416815265ffffffffffff8a8116968201969096529185168287015260608201529351949550600160a01b810490911615159387151593600160a81b909204909216917f90b39eb3d93f15c8be602aa56b56cfef44dd034911816607d74c24e8a2c21d1b9181900360800190a4505050506107da6001611285565b5f600261097060c95460ff1690565b60ff1614905090565b5f61098261158f565b905090565b6001600160a01b037f00000000000000000000000000000000000000000000000000000000000000001630036109cf5760405162461bcd60e51b8152600401610762906124cb565b7f00000000000000000000000000000000000000000000000000000000000000006001600160a01b0316610a01611633565b6001600160a01b031614610a275760405162461bcd60e51b815260040161076290612517565b610a308161164e565b604080515f80825260208201909252610a4b91839190611656565b50565b610a566117c0565b610a6a60c9805461ff001916610100179055565b6040513381527f5db9ee0a495bf2e6ff9c91a7834c1ba4fdd244a5e8aa4e537bd38aeae4b073aa9060200160405180910390a1610aa7335f6117f1565b565b6001600160a01b037f0000000000000000000000000000000000000000000000000000000000000000163003610af15760405162461bcd60e51b8152600401610762906124cb565b7f00000000000000000000000000000000000000000000000000000000000000006001600160a01b0316610b23611633565b6001600160a01b031614610b495760405162461bcd60e51b815260040161076290612517565b610b528261164e565b6107da82826001611656565b5f306001600160a01b037f00000000000000000000000000000000000000000000000000000000000000001614610bfd5760405162461bcd60e51b815260206004820152603860248201527f555550535570677261646561626c653a206d757374206e6f742062652063616c60448201527f6c6564207468726f7567682064656c656761746563616c6c00000000000000006064820152608401610762565b505f51602061285e5f395f51905f5290565b610c176117f5565b610aa75f61184f565b60655433906001600160a01b03168114610c8e5760405162461bcd60e51b815260206004820152602960248201527f4f776e61626c6532537465703a2063616c6c6572206973206e6f7420746865206044820152683732bb9037bbb732b960b91b6064820152608401610762565b610a4b8161184f565b610c9f611868565b60c9805461ff0019166102001790556040513381527f62e78cea01bee320cd4e420270b5ea74000d11b0c9f74754ebdbfc544b05a2589060200160405180910390a1610aa73360016117f1565b5f610982611633565b5f80611000831115610d0b57508390505f610e4f565b604080516080810182525f8082526020820181905281830152606080820152905163b35893fb60e01b8152309063b35893fb90610d4e9088908890600401612563565b5f60405180830381865afa925050508015610d8a57506040513d5f823e601f3d908101601f19168201604052610d879190810190612591565b60015b610d9a57855f9250925050610e4f565b9050610da781888861189a565b610db757855f9250925050610e4f565b604181606001515114610dd057855f9250925050610e4f565b5f5f610de8610dde846118da565b846060015161198a565b90925090505f816004811115610e0057610e00612666565b141580610e1457506001600160a01b038216155b15610e2757875f94509450505050610e4f565b819450876001600160a01b0316856001600160a01b031614610e4b57826040015193505b5050505b94509492505050565b604080516080810182525f8082526020820181905291810191909152606080820152610e868284018461267a565b90505b92915050565b5f5f5f5f5f610ea08a8a8a8a610cf5565b60405163508b724360e11b81526001600160a01b038c81166004830152602482018390529294509092505f917f0000000000000000000000000000000000000000000000000000000000000000169063a116e48690604401602060405180830381865afa158015610f13573d5f5f3e3d5ffd5b505050506040513d601f19601f82011682018060405250810190610f379190612706565b905080610f69575f6001600160a01b03881615610f545787610f56565b8a5b6001975095505f94506110409350505050565b896001600160a01b0316836001600160a01b031603610f93575f8a5f955095509550505050611040565b60405163508b724360e11b81526001600160a01b0384811660048301525f60248301527f0000000000000000000000000000000000000000000000000000000000000000169063a116e48690604401602060405180830381865afa158015610ffd573d5f5f3e3d5ffd5b505050506040513d601f19601f820116820180604052508101906110219190612706565b611036575f8a5f955095509550505050611040565b505f945090925090505b955095509592505050565b6110536117f5565b606580546001600160a01b0383166001600160a01b031990911681179091556110846033546001600160a01b031690565b6001600160a01b03167f38d16b8cac22d99fc7c124b9cd0de2d3fa1faef420bfe791d8c362d765e2270060405160405180910390a350565b6110c46117f5565b6110cc611256565b6110d66002611285565b6001600160a01b0381166110fd5760405163e6c4247b60e01b815260040160405180910390fd5b5f6001600160a01b0383166111265750476111216001600160a01b038316826119cc565b6111a2565b6040516370a0823160e01b81523060048201526001600160a01b038416906370a0823190602401602060405180830381865afa158015611168573d5f5f3e3d5ffd5b505050506040513d601f19601f8201168201806040525081019061118c9190612725565b90506111a26001600160a01b03841683836119d7565b604080516001600160a01b038086168252841660208201529081018290527fd1c19fbcd4551a5edfb66d43d2e337c04837afda3482b42bdf569a8fccdae5fb9060600160405180910390a1506107da6001611285565b5f54610100900460ff1661121e5760405162461bcd60e51b81526004016107629061273c565b611226611a29565b6112446001600160a01b0382161561123e578161184f565b3361184f565b5060c9805461ff001916610100179055565b600261126460c95460ff1690565b60ff1603610aa75760405163dfc60d8560e01b815260040160405180910390fd5b60c9805460ff191660ff92909216919091179055565b5f6112da6112ac6020840184612491565b6112bc604085016020860161209d565b6112c96040860186612787565b60ff546001600160a01b0316610e8f565b60ff8054931515600160a01b026001600160a81b03199094166001600160a01b039093169290921792909217905590508015611441576001600160a01b037f00000000000000000000000000000000000000000000000000000000000000001663391396de61134f604085016020860161209d565b6040516001600160e01b031960e084901b1681526001600160a01b039091166004820152602481018490526044016020604051808303815f875af1158015611399573d5f5f3e3d5ffd5b505050506040513d601f19601f820116820180604052508101906113bd9190612725565b5060ff54604051632f8cb47d60e21b81526001600160a01b039182166004820152602481018390527f00000000000000000000000000000000000000000000000000000000000000009091169063be32d1f4906044015f604051808303815f87803b15801561142a575f5ffd5b505af115801561143c573d5f5f3e3d5ffd5b505050505b61144e6020830183612491565b60ff805465ffffffffffff92909216600160a81b0265ffffffffffff60a81b199092169190911790555050565b5f5f611485611a4f565b610101549193509150156114b6576101015482146114b6576040516349645ffd60e01b815260040160405180910390fd5b6101018190556101005465ffffffffffff166114d56020850185612491565b65ffffffffffff16111561158a57604051631934171960e31b81526001600160a01b037f0000000000000000000000000000000000000000000000000000000000000000169063c9a0b8c89061152f9086906004016127c9565b5f604051808303815f87803b158015611546575f5ffd5b505af1158015611558573d5f5f3e3d5ffd5b5061156a925050506020840184612491565b610100805465ffffffffffff191665ffffffffffff929092169190911790555b505050565b604080517f8b73c3c69bb8fe3d512ecc4cf759cc79239f7b179b0ffacaa9a75d522b39400f60208201527f7893824cc05345e66765411bdc89b67d8e9de9babcc8cc47b79e1be815fcdc66918101919091527fc89efdaa54c0f20c7adf612882df0950f5a951637e0307cdcb4c672f298b8bc660608201524660808201523060a08201525f9060c00160405160208183030381529060405280519060200120905090565b5f51602061285e5f395f51905f52546001600160a01b031690565b610a4b6117f5565b7f4910fdfa16fed3260ed0e7147f7cc6da11a60208b5b9406d12a635614ffd91435460ff16156116895761158a83611aec565b826001600160a01b03166352d1902d6040518163ffffffff1660e01b8152600401602060405180830381865afa9250505080156116e3575060408051601f3d908101601f191682019092526116e091810190612725565b60015b6117465760405162461bcd60e51b815260206004820152602e60248201527f45524331393637557067726164653a206e657720696d706c656d656e7461746960448201526d6f6e206973206e6f74205555505360901b6064820152608401610762565b5f51602061285e5f395f51905f5281146117b45760405162461bcd60e51b815260206004820152602960248201527f45524331393637557067726164653a20756e737570706f727465642070726f786044820152681a58589b195555525160ba1b6064820152608401610762565b5061158a838383611b87565b6117d460c954610100900460ff1660021490565b610aa75760405163bae6e2a960e01b815260040160405180910390fd5b6107da5b6033546001600160a01b03163314610aa75760405162461bcd60e51b815260206004820181905260248201527f4f776e61626c653a2063616c6c6572206973206e6f7420746865206f776e65726044820152606401610762565b606580546001600160a01b0319169055610a4b81611bb1565b61187c60c954610100900460ff1660021490565b15610aa75760405163bae6e2a960e01b815260040160405180910390fd5b5f8265ffffffffffff16845f015165ffffffffffff161480156118d25750816001600160a01b031684602001516001600160a01b0316145b949350505050565b5f5f61195683805160208083015160409384015184517fed88a0cae89dd0c5217ed6cb075c1087a6230c0eb71389f7213d5f9c0b8eb27b8185015265ffffffffffff909416848601526001600160a01b0390911660608401526080808401919091528351808403909101815260a0909201909252805191012090565b905061198361196361158f565b8260405161190160f01b8152600281019290925260228201526042902090565b9392505050565b5f5f82516041036119be576020830151604084015160608501515f1a6119b287828585611c02565b945094505050506119c5565b505f905060025b9250929050565b6107da82825a611cbc565b604080516001600160a01b038416602482015260448082018490528251808303909101815260649091019091526020810180516001600160e01b031663a9059cbb60e01b17905261158a908490611cff565b5f54610100900460ff16610aa75760405162461bcd60e51b81526004016107629061273c565b5f8080611a5d6001436124ac565b9050611a67612069565b46611fe08201525f5b60ff81108015611a835750806001018310155b15611ab4575f198184030180408360ff83066101008110611aa657611aa66127fd565b602002015250600101611a70565b5061200081209350814081611aca60ff85612811565b6101008110611adb57611adb6127fd565b602002015261200090209293915050565b6001600160a01b0381163b611b595760405162461bcd60e51b815260206004820152602d60248201527f455243313936373a206e657720696d706c656d656e746174696f6e206973206e60448201526c1bdd08184818dbdb9d1c9858dd609a1b6064820152608401610762565b5f51602061285e5f395f51905f5280546001600160a01b0319166001600160a01b0392909216919091179055565b611b9083611dd2565b5f82511180611b9c5750805b1561158a57611bab8383611e11565b50505050565b603380546001600160a01b038381166001600160a01b0319831681179093556040519116919082907f8be0079c531659141344cd1fd0a4f28419497f9722a3daafe3b4186f6b6457e0905f90a35050565b5f807f7fffffffffffffffffffffffffffffff5d576e7357a4501ddfe92f46681b20a0831115611c3757505f90506003610e4f565b604080515f8082526020820180845289905260ff881692820192909252606081018690526080810185905260019060a0016020604051602081039080840390855afa158015611c88573d5f5f3e3d5ffd5b5050604051601f1901519150506001600160a01b038116611cb0575f60019250925050610e4f565b965f9650945050505050565b815f03611cc857505050565b611ce283838360405180602001604052805f815250611e36565b61158a57604051634c67134d60e11b815260040160405180910390fd5b5f611d53826040518060400160405280602081526020017f5361666545524332303a206c6f772d6c6576656c2063616c6c206661696c6564815250856001600160a01b0316611e739092919063ffffffff16565b905080515f1480611d73575080806020019051810190611d739190612706565b61158a5760405162461bcd60e51b815260206004820152602a60248201527f5361666545524332303a204552433230206f7065726174696f6e20646964206e6044820152691bdd081cdd58d8d9595960b21b6064820152608401610762565b611ddb81611aec565b6040516001600160a01b038216907fbc7cd75a20ee27fd9adebab32041f755214dbc6bffa90cc0225b39da2e5c2d3b905f90a250565b6060610e86838360405180606001604052806027815260200161287e60279139611e81565b5f6001600160a01b038516611e5e57604051634c67134d60e11b815260040160405180910390fd5b5f5f835160208501878988f195945050505050565b60606118d284845f85611ef5565b60605f5f856001600160a01b031685604051611e9d9190612830565b5f60405180830381855af49150503d805f8114611ed5576040519150601f19603f3d011682016040523d82523d5f602084013e611eda565b606091505b5091509150611eeb86838387611fcc565b9695505050505050565b606082471015611f565760405162461bcd60e51b815260206004820152602660248201527f416464726573733a20696e73756666696369656e742062616c616e636520666f6044820152651c8818d85b1b60d21b6064820152608401610762565b5f5f866001600160a01b03168587604051611f719190612830565b5f6040518083038185875af1925050503d805f8114611fab576040519150601f19603f3d011682016040523d82523d5f602084013e611fb0565b606091505b5091509150611fc187838387611fcc565b979650505050505050565b6060831561203a5782515f03612033576001600160a01b0385163b6120335760405162461bcd60e51b815260206004820152601d60248201527f416464726573733a2063616c6c20746f206e6f6e2d636f6e74726163740000006044820152606401610762565b50816118d2565b6118d2838381511561204f5781518083602001fd5b8060405162461bcd60e51b8152600401610762919061284b565b604051806120000160405280610100906020820280368337509192915050565b6001600160a01b0381168114610a4b575f5ffd5b5f602082840312156120ad575f5ffd5b813561198381612089565b5f606082840312156120c8575f5ffd5b50919050565b5f5f608083850312156120df575f5ffd5b82356001600160401b038111156120f4575f5ffd5b612100858286016120b8565b92505061211084602085016120b8565b90509250929050565b5f60208284031215612129575f5ffd5b5035919050565b634e487b7160e01b5f52604160045260245ffd5b604051608081016001600160401b038111828210171561216657612166612130565b60405290565b604051601f8201601f191681016001600160401b038111828210171561219457612194612130565b604052919050565b5f6001600160401b038211156121b4576121b4612130565b50601f01601f191660200190565b5f82601f8301126121d1575f5ffd5b81356121e46121df8261219c565b61216c565b8181528460208386010111156121f8575f5ffd5b816020850160208301375f918101602001919091529392505050565b5f5f60408385031215612225575f5ffd5b823561223081612089565b915060208301356001600160401b0381111561224a575f5ffd5b612256858286016121c2565b9150509250929050565b65ffffffffffff81168114610a4b575f5ffd5b5f5f83601f840112612283575f5ffd5b5081356001600160401b03811115612299575f5ffd5b6020830191508360208285010111156119c5575f5ffd5b5f5f5f5f606085870312156122c3575f5ffd5b84356122ce81612260565b935060208501356122de81612089565b925060408501356001600160401b038111156122f8575f5ffd5b61230487828801612273565b95989497509550505050565b5f5f60208385031215612321575f5ffd5b82356001600160401b03811115612336575f5ffd5b61234285828601612273565b90969095509350505050565b5f5b83811015612368578181015183820152602001612350565b50505f910152565b5f815180845261238781602086016020860161234e565b601f01601f19169290920160200192915050565b6020815265ffffffffffff825116602082015260018060a01b036020830151166040820152604082015160608201525f60608301516080808401526118d260a0840182612370565b5f5f5f5f5f608086880312156123f7575f5ffd5b853561240281612260565b9450602086013561241281612089565b935060408601356001600160401b0381111561242c575f5ffd5b61243888828901612273565b909450925050606086013561244c81612089565b809150509295509295909350565b5f5f6040838503121561246b575f5ffd5b823561247681612089565b9150602083013561248681612089565b809150509250929050565b5f602082840312156124a1575f5ffd5b813561198381612260565b81810381811115610e8957634e487b7160e01b5f52601160045260245ffd5b6020808252602c908201527f46756e6374696f6e206d7573742062652063616c6c6564207468726f7567682060408201526b19195b1959d85d1958d85b1b60a21b606082015260800190565b6020808252602c908201527f46756e6374696f6e206d7573742062652063616c6c6564207468726f7567682060408201526b6163746976652070726f787960a01b606082015260800190565b60208152816020820152818360408301375f818301604090810191909152601f909201601f19160101919050565b5f602082840312156125a1575f5ffd5b81516001600160401b038111156125b6575f5ffd5b8201608081850312156125c7575f5ffd5b6125cf612144565b81516125da81612260565b815260208201516125ea81612089565b60208201526040828101519082015260608201516001600160401b03811115612611575f5ffd5b80830192505084601f830112612625575f5ffd5b81516126336121df8261219c565b818152866020838601011115612647575f5ffd5b61265882602083016020870161234e565b606083015250949350505050565b634e487b7160e01b5f52602160045260245ffd5b5f6020828403121561268a575f5ffd5b81356001600160401b0381111561269f575f5ffd5b8201608081850312156126b0575f5ffd5b6126b8612144565b81356126c381612260565b815260208201356126d381612089565b60208201526040828101359082015260608201356001600160401b038111156126fa575f5ffd5b612658868285016121c2565b5f60208284031215612716575f5ffd5b81518015158114611983575f5ffd5b5f60208284031215612735575f5ffd5b5051919050565b6020808252602b908201527f496e697469616c697a61626c653a20636f6e7472616374206973206e6f74206960408201526a6e697469616c697a696e6760a81b606082015260800190565b5f5f8335601e1984360301811261279c575f5ffd5b8301803591506001600160401b038211156127b5575f5ffd5b6020019150368190038213156119c5575f5ffd5b6060810182356127d881612260565b65ffffffffffff16825260208381013590830152604092830135929091019190915290565b634e487b7160e01b5f52603260045260245ffd5b5f8261282b57634e487b7160e01b5f52601260045260245ffd5b500690565b5f825161284181846020870161234e565b9190910192915050565b602081525f610e86602083018461237056fe360894a13ba1a3210667c828492db98dca3e2076cc3735a920a3ca505d382bbc416464726573733a206c6f772d6c6576656c2064656c65676174652063616c6c206661696c6564a26469706673582212207a498c1c0671f735f7bcb8c24564f7aba58667a47f21b245cce5d6a301420da864736f6c634300081e0033","linkReferences":{}},"methodIdentifiers":{"ANCHOR_GAS_LIMIT()":"c46e3a66","DOMAIN_SEPARATOR()":"3644e515","GOLDEN_TOUCH_ADDRESS()":"9ee512f2","acceptOwnership()":"79ba5097","anchorV4((uint48,address,bytes),(uint48,bytes32,bytes32))":"20ae54eb","blockHashes(uint256)":"34cdf78d","bondManager()":"363cc427","checkpointStore()":"955a7244","decodeProverAuth(bytes)":"b35893fb","getBlockState()":"0f439bd9","getDesignatedProver(uint48,address,bytes,address)":"b3d5e45f","getProposalState()":"aade375b","impl()":"8abf6077","inNonReentrant()":"3075db56","init(address)":"19ab453c","l1ChainId()":"12622e5b","livenessBond()":"d4414221","owner()":"8da5cb5b","pause()":"8456cb59","paused()":"5c975abb","pendingOwner()":"e30c3978","proxiableUUID()":"52d1902d","renounceOwnership()":"715018a6","resolver()":"04f3bcec","transferOwnership(address)":"f2fde38b","unpause()":"3f4ba83a","upgradeTo(address)":"3659cfe6","upgradeToAndCall(address,bytes)":"4f1ef286","validateProverAuth(uint48,address,bytes)":"a37ea515","withdraw(address,address)":"f940e385"},"storageLayout":{"storage":[{"astId":12023,"contract":"contracts/layer2/core/Anchor.sol:Anchor","label":"_initialized","offset":0,"slot":"0","type":"t_uint8"},{"astId":12026,"contract":"contracts/layer2/core/Anchor.sol:Anchor","label":"_initializing","offset":1,"slot":"0","type":"t_bool"},{"astId":16857,"contract":"contracts/layer2/core/Anchor.sol:Anchor","label":"__gap","offset":0,"slot":"1","type":"t_array(t_uint256)50_storage"},{"astId":11768,"contract":"contracts/layer2/core/Anchor.sol:Anchor","label":"_owner","offset":0,"slot":"51","type":"t_address"},{"astId":11888,"contract":"contracts/layer2/core/Anchor.sol:Anchor","label":"__gap","offset":0,"slot":"52","type":"t_array(t_uint256)49_storage"},{"astId":11661,"contract":"contracts/layer2/core/Anchor.sol:Anchor","label":"_pendingOwner","offset":0,"slot":"101","type":"t_address"},{"astId":11755,"contract":"contracts/layer2/core/Anchor.sol:Anchor","label":"__gap","offset":0,"slot":"102","type":"t_array(t_uint256)49_storage"},{"astId":4665,"contract":"contracts/layer2/core/Anchor.sol:Anchor","label":"__gapFromOldAddressResolver","offset":0,"slot":"151","type":"t_array(t_uint256)50_storage"},{"astId":4668,"contract":"contracts/layer2/core/Anchor.sol:Anchor","label":"__reentry","offset":0,"slot":"201","type":"t_uint8"},{"astId":4670,"contract":"contracts/layer2/core/Anchor.sol:Anchor","label":"__paused","offset":1,"slot":"201","type":"t_uint8"},{"astId":4674,"contract":"contracts/layer2/core/Anchor.sol:Anchor","label":"__gap","offset":0,"slot":"202","type":"t_array(t_uint256)49_storage"},{"astId":463,"contract":"contracts/layer2/core/Anchor.sol:Anchor","label":"blockHashes","offset":0,"slot":"251","type":"t_mapping(t_uint256,t_bytes32)"},{"astId":468,"contract":"contracts/layer2/core/Anchor.sol:Anchor","label":"_pacayaSlots","offset":0,"slot":"252","type":"t_array(t_uint256)3_storage"},{"astId":472,"contract":"contracts/layer2/core/Anchor.sol:Anchor","label":"_proposalState","offset":0,"slot":"255","type":"t_struct(ProposalState)401_storage"},{"astId":476,"contract":"contracts/layer2/core/Anchor.sol:Anchor","label":"_blockState","offset":0,"slot":"256","type":"t_struct(BlockState)407_storage"},{"astId":481,"contract":"contracts/layer2/core/Anchor.sol:Anchor","label":"__gap","offset":0,"slot":"258","type":"t_array(t_uint256)41_storage"}],"types":{"t_address":{"encoding":"inplace","label":"address","numberOfBytes":"20"},"t_array(t_uint256)3_storage":{"encoding":"inplace","label":"uint256[3]","numberOfBytes":"96","base":"t_uint256"},"t_array(t_uint256)41_storage":{"encoding":"inplace","label":"uint256[41]","numberOfBytes":"1312","base":"t_uint256"},"t_array(t_uint256)49_storage":{"encoding":"inplace","label":"uint256[49]","numberOfBytes":"1568","base":"t_uint256"},"t_array(t_uint256)50_storage":{"encoding":"inplace","label":"uint256[50]","numberOfBytes":"1600","base":"t_uint256"},"t_bool":{"encoding":"inplace","label":"bool","numberOfBytes":"1"},"t_bytes32":{"encoding":"inplace","label":"bytes32","numberOfBytes":"32"},"t_mapping(t_uint256,t_bytes32)":{"encoding":"mapping","key":"t_uint256","label":"mapping(uint256 => bytes32)","numberOfBytes":"32","value":"t_bytes32"},"t_struct(BlockState)407_storage":{"encoding":"inplace","label":"struct Anchor.BlockState","numberOfBytes":"64","members":[{"astId":404,"contract":"contracts/layer2/core/Anchor.sol:Anchor","label":"anchorBlockNumber","offset":0,"slot":"0","type":"t_uint48"},{"astId":406,"contract":"contracts/layer2/core/Anchor.sol:Anchor","label":"ancestorsHash","offset":0,"slot":"1","type":"t_bytes32"}]},"t_struct(ProposalState)401_storage":{"encoding":"inplace","label":"struct Anchor.ProposalState","numberOfBytes":"32","members":[{"astId":396,"contract":"contracts/layer2/core/Anchor.sol:Anchor","label":"designatedProver","offset":0,"slot":"0","type":"t_address"},{"astId":398,"contract":"contracts/layer2/core/Anchor.sol:Anchor","label":"isLowBondProposal","offset":20,"slot":"0","type":"t_bool"},{"astId":400,"contract":"contracts/layer2/core/Anchor.sol:Anchor","label":"proposalId","offset":21,"slot":"0","type":"t_uint48"}]},"t_uint256":{"encoding":"inplace","label":"uint256","numberOfBytes":"32"},"t_uint48":{"encoding":"inplace","label":"uint48","numberOfBytes":"6"},"t_uint8":{"encoding":"inplace","label":"uint8","numberOfBytes":"1"}}},"id":4}